{
  "_format": "hh-sol-artifact-1",
  "contractName": "GameHouse",
  "sourceName": "contracts/house/GameHouse.sol",
  "abi": [
    {
      "inputs": [],
      "stateMutability": "nonpayable",
      "type": "constructor"
    },
    {
      "inputs": [
        {
          "internalType": "address",
          "name": "gameTypeAddress",
          "type": "address"
        },
        {
          "internalType": "uint256",
          "name": "runningGameId",
          "type": "uint256"
        },
        {
          "internalType": "string",
          "name": "gameURI",
          "type": "string"
        }
      ],
      "name": "closeRunningGame",
      "outputs": [],
      "stateMutability": "nonpayable",
      "type": "function"
    },
    {
      "inputs": [
        {
          "internalType": "address",
          "name": "gameTypeAddress",
          "type": "address"
        }
      ],
      "name": "fetchGameTypeStatus",
      "outputs": [
        {
          "internalType": "enum GameHouse.GameTypeStatus",
          "name": "",
          "type": "uint8"
        }
      ],
      "stateMutability": "view",
      "type": "function"
    },
    {
      "inputs": [
        {
          "internalType": "uint256",
          "name": "amount",
          "type": "uint256"
        },
        {
          "internalType": "address",
          "name": "tokenContract",
          "type": "address"
        }
      ],
      "name": "fundLottery",
      "outputs": [],
      "stateMutability": "nonpayable",
      "type": "function"
    },
    {
      "inputs": [],
      "name": "gameHouseToken",
      "outputs": [
        {
          "internalType": "contract GameHouseToken",
          "name": "",
          "type": "address"
        }
      ],
      "stateMutability": "view",
      "type": "function"
    },
    {
      "inputs": [
        {
          "internalType": "address",
          "name": "gameTypeAddress",
          "type": "address"
        },
        {
          "internalType": "uint256",
          "name": "runningGameId",
          "type": "uint256"
        }
      ],
      "name": "getGameURI",
      "outputs": [
        {
          "internalType": "string",
          "name": "",
          "type": "string"
        }
      ],
      "stateMutability": "nonpayable",
      "type": "function"
    },
    {
      "inputs": [
        {
          "internalType": "address",
          "name": "gameTypeAddress",
          "type": "address"
        },
        {
          "internalType": "string",
          "name": "token",
          "type": "string"
        }
      ],
      "name": "mintRunningGame",
      "outputs": [],
      "stateMutability": "nonpayable",
      "type": "function"
    },
    {
      "inputs": [
        {
          "internalType": "address",
          "name": "",
          "type": "address"
        },
        {
          "internalType": "address",
          "name": "",
          "type": "address"
        },
        {
          "internalType": "uint256",
          "name": "",
          "type": "uint256"
        },
        {
          "internalType": "bytes",
          "name": "",
          "type": "bytes"
        }
      ],
      "name": "onERC721Received",
      "outputs": [
        {
          "internalType": "bytes4",
          "name": "",
          "type": "bytes4"
        }
      ],
      "stateMutability": "pure",
      "type": "function"
    },
    {
      "inputs": [
        {
          "internalType": "address",
          "name": "gameTypeAddress",
          "type": "address"
        },
        {
          "internalType": "enum GameHouse.GameTypeStatus",
          "name": "newStatus",
          "type": "uint8"
        }
      ],
      "name": "setGameTypeStatus",
      "outputs": [],
      "stateMutability": "nonpayable",
      "type": "function"
    },
    {
      "inputs": [
        {
          "internalType": "uint256",
          "name": "newClaim",
          "type": "uint256"
        }
      ],
      "name": "setHouseClaim",
      "outputs": [],
      "stateMutability": "nonpayable",
      "type": "function"
    },
    {
      "inputs": [
        {
          "internalType": "uint256",
          "name": "newFee",
          "type": "uint256"
        }
      ],
      "name": "setHouseFee",
      "outputs": [],
      "stateMutability": "nonpayable",
      "type": "function"
    },
    {
      "inputs": [
        {
          "internalType": "address",
          "name": "newAddress",
          "type": "address"
        }
      ],
      "name": "setMaintenanceAddress",
      "outputs": [],
      "stateMutability": "nonpayable",
      "type": "function"
    },
    {
      "inputs": [
        {
          "internalType": "uint256",
          "name": "newFee",
          "type": "uint256"
        }
      ],
      "name": "setMaintenanceFee",
      "outputs": [],
      "stateMutability": "nonpayable",
      "type": "function"
    },
    {
      "inputs": [
        {
          "internalType": "address",
          "name": "gameTypeAddress",
          "type": "address"
        },
        {
          "internalType": "uint256",
          "name": "runningGameId",
          "type": "uint256"
        },
        {
          "internalType": "enum IRunningGameMetadata.RunningGameStatus",
          "name": "newStatus",
          "type": "uint8"
        }
      ],
      "name": "updateRunningGameStatus",
      "outputs": [],
      "stateMutability": "nonpayable",
      "type": "function"
    }
  ],
  "bytecode": "0x60806040526040516100109061007f565b604051809103906000f08015801561002c573d6000803e3d6000fd5b50600080546001600160a01b0319166001600160a01b039290921691909117905560018055604b600290815560035534801561006757600080fd5b50600480546001600160a01b0319163317905561008c565b612fef80610b7f83390190565b610ae48061009b6000396000f3fe608060405234801561001057600080fd5b50600436106100df5760003560e01c80635a09f2f41161008c578063941cd7e511610066578063941cd7e51461023f578063d1528dbd14610284578063e6f2f0e514610296578063ebd6670e146102a957600080fd5b80635a09f2f4146101c45780636b3bd550146101d7578063747c52521461022c57600080fd5b80631bc992a6116100bd5780631bc992a61461018b578063293fa4d21461019e5780633f0c5710146101b157600080fd5b806306a15bb6146100e45780630e2ca006146100f9578063150b7a0214610122575b600080fd5b6100f76100f23660046105f4565b6102ef565b005b61010c61010736600461064e565b61037d565b604051610119919061069c565b60405180910390f35b61015a6101303660046106ed565b7f150b7a020000000000000000000000000000000000000000000000000000000095945050505050565b6040517fffffffff000000000000000000000000000000000000000000000000000000009091168152602001610119565b6100f761019936600461076c565b61043a565b6100f76101ac3660046107ac565b6104c5565b6100f76101bf3660046107ff565b600255565b6100f76101d23660046107ff565b600155565b6100f76101e5366004610818565b600480547fffffffffffffffffffffffff00000000000000000000000000000000000000001673ffffffffffffffffffffffffffffffffffffffff92909216919091179055565b6100f761023a3660046107ff565b600355565b60005461025f9073ffffffffffffffffffffffffffffffffffffffff1681565b60405173ffffffffffffffffffffffffffffffffffffffff9091168152602001610119565b6100f7610292366004610833565b5050565b6100f76102a436600461085f565b610519565b6102e26102b7366004610818565b73ffffffffffffffffffffffffffffffffffffffff1660009081526005602052604090205460ff1690565b60405161011991906108fc565b6040517fc730cc6400000000000000000000000000000000000000000000000000000000815273ffffffffffffffffffffffffffffffffffffffff85169063c730cc649061034590869086908690600401610958565b600060405180830381600087803b15801561035f57600080fd5b505af1158015610373573d6000803e3d6000fd5b5050505050505050565b6040517fc87b56dd0000000000000000000000000000000000000000000000000000000081526004810182905260609073ffffffffffffffffffffffffffffffffffffffff84169063c87b56dd906024016000604051808303816000875af11580156103ed573d6000803e3d6000fd5b505050506040513d6000823e601f3d9081017fffffffffffffffffffffffffffffffffffffffffffffffffffffffffffffffe016820160405261043391908101906109aa565b9392505050565b6040517fd7ae2d4e00000000000000000000000000000000000000000000000000000000815273ffffffffffffffffffffffffffffffffffffffff84169063d7ae2d4e9061048e9085908590600401610a75565b600060405180830381600087803b1580156104a857600080fd5b505af11580156104bc573d6000803e3d6000fd5b50505050505050565b6040517f56e5848e00000000000000000000000000000000000000000000000000000000815273ffffffffffffffffffffffffffffffffffffffff8416906356e5848e9061048e9085908590600401610a92565b73ffffffffffffffffffffffffffffffffffffffff8216600090815260056020526040902080548291907fffffffffffffffffffffffffffffffffffffffffffffffffffffffffffffff0016600183600381111561057957610579610896565b02179055505050565b803573ffffffffffffffffffffffffffffffffffffffff811681146105a657600080fd5b919050565b60008083601f8401126105bd57600080fd5b50813567ffffffffffffffff8111156105d557600080fd5b6020830191508360208285010111156105ed57600080fd5b9250929050565b6000806000806060858703121561060a57600080fd5b61061385610582565b935060208501359250604085013567ffffffffffffffff81111561063657600080fd5b610642878288016105ab565b95989497509550505050565b6000806040838503121561066157600080fd5b61066a83610582565b946020939093013593505050565b60005b8381101561069357818101518382015260200161067b565b50506000910152565b60208152600082518060208401526106bb816040850160208701610678565b601f017fffffffffffffffffffffffffffffffffffffffffffffffffffffffffffffffe0169190910160400192915050565b60008060008060006080868803121561070557600080fd5b61070e86610582565b945061071c60208701610582565b935060408601359250606086013567ffffffffffffffff81111561073f57600080fd5b61074b888289016105ab565b969995985093965092949392505050565b6004811061076957600080fd5b50565b60008060006060848603121561078157600080fd5b61078a84610582565b92506020840135915060408401356107a18161075c565b809150509250925092565b6000806000604084860312156107c157600080fd5b6107ca84610582565b9250602084013567ffffffffffffffff8111156107e657600080fd5b6107f2868287016105ab565b9497909650939450505050565b60006020828403121561081157600080fd5b5035919050565b60006020828403121561082a57600080fd5b61043382610582565b6000806040838503121561084657600080fd5b8235915061085660208401610582565b90509250929050565b6000806040838503121561087257600080fd5b61087b83610582565b9150602083013561088b8161075c565b809150509250929050565b7f4e487b7100000000000000000000000000000000000000000000000000000000600052602160045260246000fd5b60048110610769577f4e487b7100000000000000000000000000000000000000000000000000000000600052602160045260246000fd5b60208101610909836108c5565b91905290565b8183528181602085013750600060208284010152600060207fffffffffffffffffffffffffffffffffffffffffffffffffffffffffffffffe0601f840116840101905092915050565b83815260406020820152600061097260408301848661090f565b95945050505050565b7f4e487b7100000000000000000000000000000000000000000000000000000000600052604160045260246000fd5b6000602082840312156109bc57600080fd5b815167ffffffffffffffff808211156109d457600080fd5b818401915084601f8301126109e857600080fd5b8151818111156109fa576109fa61097b565b604051601f82017fffffffffffffffffffffffffffffffffffffffffffffffffffffffffffffffe0908116603f01168101908382118183101715610a4057610a4061097b565b81604052828152876020848701011115610a5957600080fd5b610a6a836020830160208801610678565b979650505050505050565b82815260408101610a85836108c5565b8260208301529392505050565b602081526000610aa660208301848661090f565b94935050505056fea264697066735822122098659c16721acafa12fd1180f50d5c438f787069264068a6932f3a90f014915164736f6c634300081400336101606040523480156200001257600080fd5b506040518060400160405280600981526020016847616d65486f75736560b81b81525080604051806040016040528060018152602001603160f81b8152506040518060400160405280600981526020016847616d65486f75736560b81b8152506040518060400160405280600281526020016108e960f31b81525081600390816200009e91906200098d565b506004620000ad82826200098d565b50620000bf915083905060056200019a565b61012052620000d08160066200019a565b61014052815160208084019190912060e052815190820120610100524660a0526200015e60e05161010051604080517f8b73c3c69bb8fe3d512ecc4cf759cc79239f7b179b0ffacaa9a75d522b39400f60208201529081019290925260608201524660808201523060a082015260009060c00160405160208183030381529060405280519060200120905090565b60805250503060c05250600b80546001600160a01b0319163390811790915562000194906a52b7d2dcc80cd2e4000000620001d3565b62000b5d565b6000602083511015620001ba57620001b28362000215565b9050620001cd565b81620001c784826200098d565b5060ff90505b92915050565b6001600160a01b038216620002035760405163ec442f0560e01b8152600060048201526024015b60405180910390fd5b620002116000838362000258565b5050565b600080829050601f8151111562000243578260405163305a27a960e01b8152600401620001fa919062000a59565b8051620002508262000aa9565b179392505050565b620002658383836200026a565b505050565b62000277838383620002d9565b6001600160a01b038316620002cc5760006200029260025490565b90506001600160d01b0380821115620002c957604051630e58ae9360e11b81526004810183905260248101829052604401620001fa565b50505b620002658383836200040c565b6001600160a01b03831662000308578060026000828254620002fc919062000ae4565b909155506200037c9050565b6001600160a01b038316600090815260208190526040902054818110156200035d5760405163391434e360e21b81526001600160a01b03851660048201526024810182905260448101839052606401620001fa565b6001600160a01b03841660009081526020819052604090209082900390555b6001600160a01b0382166200039a57600280548290039055620003b9565b6001600160a01b03821660009081526020819052604090208054820190555b816001600160a01b0316836001600160a01b03167fddf252ad1be2c89b69c2b068fc378daa952ba7f163c4a11628f55a4df523b3ef83604051620003ff91815260200190565b60405180910390a3505050565b6001600160a01b03831662000441576200043e600a62000a82620004a460201b176200043884620004b9565b620004f3565b50505b6001600160a01b03821662000470576200046d600a62000a8e6200053060201b176200043884620004b9565b50505b6001600160a01b0383811660009081526008602052604080822054858416835291205462000265929182169116836200053e565b6000620004b2828462000afa565b9392505050565b60006001600160d01b03821115620004ef576040516306dfcc6560e41b815260d0600482015260248101839052604401620001fa565b5090565b6000806200052362000504620006a5565b6200051a6200051388620006b6565b868860201c565b87919062000705565b915091505b935093915050565b6000620004b2828462000b24565b816001600160a01b0316836001600160a01b031614158015620005615750600081115b1562000265576001600160a01b0383161562000604576001600160a01b038316600090815260096020908152604082208291620005af919062000530901b62000a8e176200043886620004b9565b6001600160d01b031691506001600160d01b03169150846001600160a01b031660008051602062002fcf8339815191528383604051620005f9929190918252602082015260400190565b60405180910390a250505b6001600160a01b0382161562000265576001600160a01b0382166000908152600960209081526040822082916200064c9190620004a4901b62000a82176200043886620004b9565b6001600160d01b031691506001600160d01b03169150836001600160a01b031660008051602062002fcf833981519152838360405162000696929190918252602082015260400190565b60405180910390a25050505050565b6000620006b162000715565b905090565b80546000908015620006fc57620006e283620006d460018462000b47565b600091825260209091200190565b54660100000000000090046001600160d01b0316620004b2565b60009392505050565b6000806200052385858562000722565b6000620006b143620008b4565b825460009081908015620008555760006200074487620006d460018562000b47565b60408051808201909152905465ffffffffffff80821680845266010000000000009092046001600160d01b0316602084015291925090871610156200079c57604051632520601d60e01b815260040160405180910390fd5b805165ffffffffffff808816911603620007f05784620007c388620006d460018662000b47565b80546001600160d01b039290921666010000000000000265ffffffffffff90921691909117905562000844565b6040805180820190915265ffffffffffff80881682526001600160d01b0380881660208085019182528b54600181018d5560008d815291909120945191519092166601000000000000029216919091179101555b602001519250839150620005289050565b50506040805180820190915265ffffffffffff80851682526001600160d01b0380851660208085019182528854600181018a5560008a815291822095519251909316660100000000000002919093161792019190915590508162000528565b600065ffffffffffff821115620004ef576040516306dfcc6560e41b81526030600482015260248101839052604401620001fa565b634e487b7160e01b600052604160045260246000fd5b600181811c908216806200091457607f821691505b6020821081036200093557634e487b7160e01b600052602260045260246000fd5b50919050565b601f8211156200026557600081815260208120601f850160051c81016020861015620009645750805b601f850160051c820191505b81811015620009855782815560010162000970565b505050505050565b81516001600160401b03811115620009a957620009a9620008e9565b620009c181620009ba8454620008ff565b846200093b565b602080601f831160018114620009f95760008415620009e05750858301515b600019600386901b1c1916600185901b17855562000985565b600085815260208120601f198616915b8281101562000a2a5788860151825594840194600190910190840162000a09565b508582101562000a495787850151600019600388901b60f8161c191681555b5050505050600190811b01905550565b600060208083528351808285015260005b8181101562000a885785810183015185820160400152820162000a6a565b506000604082860101526040601f19601f8301168501019250505092915050565b80516020808301519190811015620009355760001960209190910360031b1b16919050565b634e487b7160e01b600052601160045260246000fd5b80820180821115620001cd57620001cd62000ace565b6001600160d01b0381811683821601908082111562000b1d5762000b1d62000ace565b5092915050565b6001600160d01b0382811682821603908082111562000b1d5762000b1d62000ace565b81810381811115620001cd57620001cd62000ace565b60805160a05160c05160e05161010051610120516101405161241762000bb86000396000610f9101526000610f6401526000610ccc01526000610ca401526000610bff01526000610c2901526000610c5301526124176000f3fe608060405234801561001057600080fd5b50600436106101a35760003560e01c80636fcfff45116100ee57806395d89b4111610097578063c3cda52011610071578063c3cda5201461039e578063d505accf146103b1578063dd62ed3e146103c4578063f1127ed8146103fd57600080fd5b806395d89b41146103705780639ab24eb014610378578063a9059cbb1461038b57600080fd5b806384b0196e116100c857806384b0196e146103235780638e539e8c1461033e57806391ddadf41461035157600080fd5b80636fcfff45146102bf57806370a08231146102e75780637ecebe001461031057600080fd5b80633a46b1a8116101505780634bf5d7e91161012a5780634bf5d7e914610260578063587cde1e146102685780635c19a95c146102ac57600080fd5b80633a46b1a81461022557806342966c68146102385780634b07f1661461024d57600080fd5b806323b872dd1161018157806323b872dd146101fb578063313ce5671461020e5780633644e5151461021d57600080fd5b806306fdde03146101a8578063095ea7b3146101c657806318160ddd146101e9575b600080fd5b6101b061044f565b6040516101bd9190611f43565b60405180910390f35b6101d96101d4366004611f72565b6104e1565b60405190151581526020016101bd565b6002545b6040519081526020016101bd565b6101d9610209366004611f9c565b6104fb565b604051601281526020016101bd565b6101ed61051f565b6101ed610233366004611f72565b61052e565b61024b610246366004611fd8565b6105e0565b005b61024b61025b366004611fd8565b6105ed565b6101b0610603565b610294610276366004611ff1565b6001600160a01b039081166000908152600860205260409020541690565b6040516001600160a01b0390911681526020016101bd565b61024b6102ba366004611ff1565b610694565b6102d26102cd366004611ff1565b6106a3565b60405163ffffffff90911681526020016101bd565b6101ed6102f5366004611ff1565b6001600160a01b031660009081526020819052604090205490565b6101ed61031e366004611ff1565b6106ae565b61032b6106b9565b6040516101bd979695949392919061200c565b6101ed61034c366004611fd8565b61071b565b6103596107b1565b60405165ffffffffffff90911681526020016101bd565b6101b06107bb565b6101ed610386366004611ff1565b6107ca565b6101d9610399366004611f72565b61080d565b61024b6103ac3660046120cf565b61081b565b61024b6103bf366004612127565b6108f1565b6101ed6103d2366004612191565b6001600160a01b03918216600090815260016020908152604080832093909416825291909152205490565b61041061040b3660046121c4565b610a5d565b60408051825165ffffffffffff16815260209283015179ffffffffffffffffffffffffffffffffffffffffffffffffffff1692810192909252016101bd565b60606003805461045e90612204565b80601f016020809104026020016040519081016040528092919081815260200182805461048a90612204565b80156104d75780601f106104ac576101008083540402835291602001916104d7565b820191906000526020600020905b8154815290600101906020018083116104ba57829003601f168201915b5050505050905090565b6000336104ef818585610a9a565b60019150505b92915050565b600033610509858285610aac565b610514858585610b61565b506001949350505050565b6000610529610bf2565b905090565b6000806105396107b1565b90508065ffffffffffff168310610592576040517fecd3f81e0000000000000000000000000000000000000000000000000000000081526004810184905265ffffffffffff821660248201526044015b60405180910390fd5b6105bc61059e84610d1d565b6001600160a01b038616600090815260096020526040902090610d6d565b79ffffffffffffffffffffffffffffffffffffffffffffffffffff16949350505050565b6105ea3382610e39565b50565b600b546105ea906001600160a01b031682610e39565b606061060d610e88565b65ffffffffffff1661061d6107b1565b65ffffffffffff161461065c576040517f6ff0714000000000000000000000000000000000000000000000000000000000815260040160405180910390fd5b5060408051808201909152601d81527f6d6f64653d626c6f636b6e756d6265722666726f6d3d64656661756c74000000602082015290565b3361069f8183610e93565b5050565b60006104f582610f1d565b60006104f582610f3f565b6000606080600080600060606106cd610f5d565b6106d5610f8a565b604080516000808252602082019092527f0f000000000000000000000000000000000000000000000000000000000000009b939a50919850469750309650945092509050565b6000806107266107b1565b90508065ffffffffffff16831061077a576040517fecd3f81e0000000000000000000000000000000000000000000000000000000081526004810184905265ffffffffffff82166024820152604401610589565b61078e61078684610d1d565b600a90610d6d565b79ffffffffffffffffffffffffffffffffffffffffffffffffffff169392505050565b6000610529610e88565b60606004805461045e90612204565b6001600160a01b03811660009081526009602052604081206107eb90610fb7565b79ffffffffffffffffffffffffffffffffffffffffffffffffffff1692915050565b6000336104ef818585610b61565b83421115610858576040517f4683af0e00000000000000000000000000000000000000000000000000000000815260048101859052602401610589565b604080517fe48329057bfd03d55e49b547132e39cffd9c1820ad7b9d4c5307691425d15adf60208201526001600160a01b0388169181019190915260608101869052608081018590526000906108d2906108ca9060a00160405160208183030381529060405280519060200120611006565b85858561104e565b90506108de818761107c565b6108e88188610e93565b50505050505050565b8342111561092e576040517f6279130200000000000000000000000000000000000000000000000000000000815260048101859052602401610589565b60007f6e71edae12b1b97f4d1f60370fef10105fa2faae0126114a169c64845d6126c988888861097b8c6001600160a01b0316600090815260076020526040902080546001810190915590565b6040805160208101969096526001600160a01b0394851690860152929091166060840152608083015260a082015260c0810186905260e00160405160208183030381529060405280519060200120905060006109d682611006565b905060006109e68287878761104e565b9050896001600160a01b0316816001600160a01b031614610a46576040517f4b800e460000000000000000000000000000000000000000000000000000000081526001600160a01b0380831660048301528b166024820152604401610589565b610a518a8a8a610a9a565b50505050505050505050565b6040805180820190915260008082526020820152610a7b83836110e8565b9392505050565b6000610a7b8284612286565b6000610a7b82846122c0565b610aa7838383600161111e565b505050565b6001600160a01b038381166000908152600160209081526040808320938616835292905220547fffffffffffffffffffffffffffffffffffffffffffffffffffffffffffffffff8114610b5b5781811015610b4c576040517ffb8f41b20000000000000000000000000000000000000000000000000000000081526001600160a01b03841660048201526024810182905260448101839052606401610589565b610b5b8484848403600061111e565b50505050565b6001600160a01b038316610ba4576040517f96c6fd1e00000000000000000000000000000000000000000000000000000000815260006004820152602401610589565b6001600160a01b038216610be7576040517fec442f0500000000000000000000000000000000000000000000000000000000815260006004820152602401610589565b610aa7838383611225565b6000306001600160a01b037f000000000000000000000000000000000000000000000000000000000000000016148015610c4b57507f000000000000000000000000000000000000000000000000000000000000000046145b15610c7557507f000000000000000000000000000000000000000000000000000000000000000090565b610529604080517f8b73c3c69bb8fe3d512ecc4cf759cc79239f7b179b0ffacaa9a75d522b39400f60208201527f0000000000000000000000000000000000000000000000000000000000000000918101919091527f000000000000000000000000000000000000000000000000000000000000000060608201524660808201523060a082015260009060c00160405160208183030381529060405280519060200120905090565b600065ffffffffffff821115610d69576040517f6dfcc6500000000000000000000000000000000000000000000000000000000081526030600482015260248101839052604401610589565b5090565b815460009081816005811115610dcc576000610d8884611230565b610d9290856122f3565b60008881526020902090915081015465ffffffffffff9081169087161015610dbc57809150610dca565b610dc7816001612306565b92505b505b6000610dda87878585611318565b90508015610e2b57610dff87610df16001846122f3565b600091825260209091200190565b546601000000000000900479ffffffffffffffffffffffffffffffffffffffffffffffffffff16610e2e565b60005b979650505050505050565b6001600160a01b038216610e7c576040517f96c6fd1e00000000000000000000000000000000000000000000000000000000815260006004820152602401610589565b61069f82600083611225565b600061052943610d1d565b6001600160a01b0382811660008181526008602052604080822080548686167fffffffffffffffffffffffff0000000000000000000000000000000000000000821681179092559151919094169392849290917f3134e8a2e6d97e929a7e54011ea5485d7d196dd5f0ba4d4ef95803e8e3fc257f9190a4610aa78183610f188661137a565b611398565b6001600160a01b0381166000908152600960205260408120546104f590611550565b6001600160a01b0381166000908152600760205260408120546104f5565b60606105297f0000000000000000000000000000000000000000000000000000000000000000600561159a565b60606105297f0000000000000000000000000000000000000000000000000000000000000000600661159a565b80546000908015610ffd57610fd183610df16001846122f3565b546601000000000000900479ffffffffffffffffffffffffffffffffffffffffffffffffffff16610a7b565b60009392505050565b60006104f5611013610bf2565b836040517f19010000000000000000000000000000000000000000000000000000000000008152600281019290925260228201526042902090565b60008060008061106088888888611645565b9250925092506110708282611732565b50909695505050505050565b6001600160a01b0382166000908152600760205260409020805460018101909155818114610aa7576040517f752d88c00000000000000000000000000000000000000000000000000000000081526001600160a01b038416600482015260248101829052604401610589565b60408051808201909152600080825260208201526001600160a01b0383166000908152600960205260409020610a7b9083611836565b6001600160a01b038416611161576040517fe602df0500000000000000000000000000000000000000000000000000000000815260006004820152602401610589565b6001600160a01b0383166111a4576040517f94280d6200000000000000000000000000000000000000000000000000000000815260006004820152602401610589565b6001600160a01b0380851660009081526001602090815260408083209387168352929052208290558015610b5b57826001600160a01b0316846001600160a01b03167f8c5be1e5ebec7d5bd14f71427d1e84f3dd0314c0f7b2291e5b200ac8c7c3b9258460405161121791815260200190565b60405180910390a350505050565b610aa78383836118bc565b60008160000361124257506000919050565b6000600161124f8461194f565b901c6001901b9050600181848161126857611268612319565b048201901c9050600181848161128057611280612319565b048201901c9050600181848161129857611298612319565b048201901c905060018184816112b0576112b0612319565b048201901c905060018184816112c8576112c8612319565b048201901c905060018184816112e0576112e0612319565b048201901c905060018184816112f8576112f8612319565b048201901c9050610a7b8182858161131257611312612319565b046119e3565b60005b8183101561137257600061132f84846119f9565b60008781526020902090915065ffffffffffff86169082015465ffffffffffff16111561135e5780925061136c565b611369816001612306565b93505b5061131b565b509392505050565b6001600160a01b0381166000908152602081905260408120546104f5565b816001600160a01b0316836001600160a01b0316141580156113ba5750600081115b15610aa7576001600160a01b03831615611488576001600160a01b038316600090815260096020526040812081906113fd90610a8e6113f886611a14565b611a74565b79ffffffffffffffffffffffffffffffffffffffffffffffffffff16915079ffffffffffffffffffffffffffffffffffffffffffffffffffff169150846001600160a01b03167fdec2bacdd2f05b59de34da9b523dff8be42e5e38e818c82fdb0bae774387a724838360405161147d929190918252602082015260400190565b60405180910390a250505b6001600160a01b03821615610aa7576001600160a01b038216600090815260096020526040812081906114c190610a826113f886611a14565b79ffffffffffffffffffffffffffffffffffffffffffffffffffff16915079ffffffffffffffffffffffffffffffffffffffffffffffffffff169150836001600160a01b03167fdec2bacdd2f05b59de34da9b523dff8be42e5e38e818c82fdb0bae774387a7248383604051611541929190918252602082015260400190565b60405180910390a25050505050565b600063ffffffff821115610d69576040517f6dfcc6500000000000000000000000000000000000000000000000000000000081526020600482015260248101839052604401610589565b606060ff83146115b4576115ad83611aad565b90506104f5565b8180546115c090612204565b80601f01602080910402602001604051908101604052809291908181526020018280546115ec90612204565b80156116395780601f1061160e57610100808354040283529160200191611639565b820191906000526020600020905b81548152906001019060200180831161161c57829003601f168201915b505050505090506104f5565b600080807f7fffffffffffffffffffffffffffffff5d576e7357a4501ddfe92f46681b20a08411156116805750600091506003905082611728565b604080516000808252602082018084528a905260ff891692820192909252606081018790526080810186905260019060a0016020604051602081039080840390855afa1580156116d4573d6000803e3d6000fd5b50506040517fffffffffffffffffffffffffffffffffffffffffffffffffffffffffffffffe001519150506001600160a01b03811661171e57506000925060019150829050611728565b9250600091508190505b9450945094915050565b600082600381111561174657611746612348565b0361174f575050565b600182600381111561176357611763612348565b0361179a576040517ff645eedf00000000000000000000000000000000000000000000000000000000815260040160405180910390fd5b60028260038111156117ae576117ae612348565b036117e8576040517ffce698f700000000000000000000000000000000000000000000000000000000815260048101829052602401610589565b60038260038111156117fc576117fc612348565b0361069f576040517fd78bce0c00000000000000000000000000000000000000000000000000000000815260048101829052602401610589565b6040805180820190915260008082526020820152826000018263ffffffff168154811061186557611865612377565b60009182526020918290206040805180820190915291015465ffffffffffff811682526601000000000000900479ffffffffffffffffffffffffffffffffffffffffffffffffffff16918101919091529392505050565b6118c7838383611aec565b6001600160a01b0383166119445760006118e060025490565b905079ffffffffffffffffffffffffffffffffffffffffffffffffffff80821115611941576040517f1cb15d260000000000000000000000000000000000000000000000000000000081526004810183905260248101829052604401610589565b50505b610aa7838383611c2f565b600080608083901c1561196457608092831c92015b604083901c1561197657604092831c92015b602083901c1561198857602092831c92015b601083901c1561199a57601092831c92015b600883901c156119ac57600892831c92015b600483901c156119be57600492831c92015b600283901c156119d057600292831c92015b600183901c156104f55760010192915050565b60008183106119f25781610a7b565b5090919050565b6000611a0860028484186123a6565b610a7b90848416612306565b600079ffffffffffffffffffffffffffffffffffffffffffffffffffff821115610d69576040517f6dfcc65000000000000000000000000000000000000000000000000000000000815260d0600482015260248101839052604401610589565b600080611aa0611a826107b1565b611a98611a8e88610fb7565b868863ffffffff16565b879190611ca5565b915091505b935093915050565b60606000611aba83611cb3565b604080516020808252818301909252919250600091906020820181803683375050509182525060208101929092525090565b6001600160a01b038316611b17578060026000828254611b0c9190612306565b90915550611ba29050565b6001600160a01b03831660009081526020819052604090205481811015611b83576040517fe450d38c0000000000000000000000000000000000000000000000000000000081526001600160a01b03851660048201526024810182905260448101839052606401610589565b6001600160a01b03841660009081526020819052604090209082900390555b6001600160a01b038216611bbe57600280548290039055611bdd565b6001600160a01b03821660009081526020819052604090208054820190555b816001600160a01b0316836001600160a01b03167fddf252ad1be2c89b69c2b068fc378daa952ba7f163c4a11628f55a4df523b3ef83604051611c2291815260200190565b60405180910390a3505050565b6001600160a01b038316611c5157611c4e600a610a826113f884611a14565b50505b6001600160a01b038216611c7357611c70600a610a8e6113f884611a14565b50505b6001600160a01b03838116600090815260086020526040808220548584168352912054610aa792918216911683611398565b600080611aa0858585611cf4565b600060ff8216601f8111156104f5576040517fb3512b0c00000000000000000000000000000000000000000000000000000000815260040160405180910390fd5b825460009081908015611e6e576000611d1287610df16001856122f3565b60408051808201909152905465ffffffffffff808216808452660100000000000090920479ffffffffffffffffffffffffffffffffffffffffffffffffffff1660208401529192509087161015611d95576040517f2520601d00000000000000000000000000000000000000000000000000000000815260040160405180910390fd5b805165ffffffffffff808816911603611df75784611db888610df16001866122f3565b805479ffffffffffffffffffffffffffffffffffffffffffffffffffff9290921666010000000000000265ffffffffffff909216919091179055611e5e565b6040805180820190915265ffffffffffff808816825279ffffffffffffffffffffffffffffffffffffffffffffffffffff80881660208085019182528b54600181018d5560008d815291909120945191519092166601000000000000029216919091179101555b602001519250839150611aa59050565b50506040805180820190915265ffffffffffff808516825279ffffffffffffffffffffffffffffffffffffffffffffffffffff80851660208085019182528854600181018a5560008a8152918220955192519093166601000000000000029190931617920191909155905081611aa5565b6000815180845260005b81811015611f0557602081850181015186830182015201611ee9565b5060006020828601015260207fffffffffffffffffffffffffffffffffffffffffffffffffffffffffffffffe0601f83011685010191505092915050565b602081526000610a7b6020830184611edf565b80356001600160a01b0381168114611f6d57600080fd5b919050565b60008060408385031215611f8557600080fd5b611f8e83611f56565b946020939093013593505050565b600080600060608486031215611fb157600080fd5b611fba84611f56565b9250611fc860208501611f56565b9150604084013590509250925092565b600060208284031215611fea57600080fd5b5035919050565b60006020828403121561200357600080fd5b610a7b82611f56565b7fff00000000000000000000000000000000000000000000000000000000000000881681526000602060e08184015261204860e084018a611edf565b838103604085015261205a818a611edf565b606085018990526001600160a01b038816608086015260a0850187905284810360c0860152855180825283870192509083019060005b818110156120ac57835183529284019291840191600101612090565b50909c9b505050505050505050505050565b803560ff81168114611f6d57600080fd5b60008060008060008060c087890312156120e857600080fd5b6120f187611f56565b9550602087013594506040870135935061210d606088016120be565b92506080870135915060a087013590509295509295509295565b600080600080600080600060e0888a03121561214257600080fd5b61214b88611f56565b965061215960208901611f56565b95506040880135945060608801359350612175608089016120be565b925060a0880135915060c0880135905092959891949750929550565b600080604083850312156121a457600080fd5b6121ad83611f56565b91506121bb60208401611f56565b90509250929050565b600080604083850312156121d757600080fd5b6121e083611f56565b9150602083013563ffffffff811681146121f957600080fd5b809150509250929050565b600181811c9082168061221857607f821691505b602082108103612251577f4e487b7100000000000000000000000000000000000000000000000000000000600052602260045260246000fd5b50919050565b7f4e487b7100000000000000000000000000000000000000000000000000000000600052601160045260246000fd5b79ffffffffffffffffffffffffffffffffffffffffffffffffffff8181168382160190808211156122b9576122b9612257565b5092915050565b79ffffffffffffffffffffffffffffffffffffffffffffffffffff8281168282160390808211156122b9576122b9612257565b818103818111156104f5576104f5612257565b808201808211156104f5576104f5612257565b7f4e487b7100000000000000000000000000000000000000000000000000000000600052601260045260246000fd5b7f4e487b7100000000000000000000000000000000000000000000000000000000600052602160045260246000fd5b7f4e487b7100000000000000000000000000000000000000000000000000000000600052603260045260246000fd5b6000826123dc577f4e487b7100000000000000000000000000000000000000000000000000000000600052601260045260246000fd5b50049056fea2646970667358221220eee81e1dab6c7f7d9cb55c4b0996278b5aad8ed7dbfca629dac2eddcd228c30064736f6c63430008140033dec2bacdd2f05b59de34da9b523dff8be42e5e38e818c82fdb0bae774387a724",
  "linkReferences": {},
  "deployedLinkReferences": {}
}