{
  "_format": "hh-sol-artifact-1",
  "contractName": "TexasHoldem",
  "sourceName": "contracts/games/TexasHoldem.sol",
  "abi": [
    {
      "inputs": [
        {
          "internalType": "address",
          "name": "house",
          "type": "address"
        }
      ],
      "stateMutability": "nonpayable",
      "type": "constructor"
    },
    {
      "inputs": [
        {
          "internalType": "address",
          "name": "sender",
          "type": "address"
        },
        {
          "internalType": "uint256",
          "name": "tokenId",
          "type": "uint256"
        },
        {
          "internalType": "address",
          "name": "owner",
          "type": "address"
        }
      ],
      "name": "ERC721IncorrectOwner",
      "type": "error"
    },
    {
      "inputs": [
        {
          "internalType": "address",
          "name": "operator",
          "type": "address"
        },
        {
          "internalType": "uint256",
          "name": "tokenId",
          "type": "uint256"
        }
      ],
      "name": "ERC721InsufficientApproval",
      "type": "error"
    },
    {
      "inputs": [
        {
          "internalType": "address",
          "name": "approver",
          "type": "address"
        }
      ],
      "name": "ERC721InvalidApprover",
      "type": "error"
    },
    {
      "inputs": [
        {
          "internalType": "address",
          "name": "operator",
          "type": "address"
        }
      ],
      "name": "ERC721InvalidOperator",
      "type": "error"
    },
    {
      "inputs": [
        {
          "internalType": "address",
          "name": "owner",
          "type": "address"
        }
      ],
      "name": "ERC721InvalidOwner",
      "type": "error"
    },
    {
      "inputs": [
        {
          "internalType": "address",
          "name": "receiver",
          "type": "address"
        }
      ],
      "name": "ERC721InvalidReceiver",
      "type": "error"
    },
    {
      "inputs": [
        {
          "internalType": "address",
          "name": "sender",
          "type": "address"
        }
      ],
      "name": "ERC721InvalidSender",
      "type": "error"
    },
    {
      "inputs": [
        {
          "internalType": "uint256",
          "name": "tokenId",
          "type": "uint256"
        }
      ],
      "name": "ERC721NonexistentToken",
      "type": "error"
    },
    {
      "inputs": [
        {
          "internalType": "address",
          "name": "owner",
          "type": "address"
        }
      ],
      "name": "OwnableInvalidOwner",
      "type": "error"
    },
    {
      "inputs": [
        {
          "internalType": "address",
          "name": "account",
          "type": "address"
        }
      ],
      "name": "OwnableUnauthorizedAccount",
      "type": "error"
    },
    {
      "anonymous": false,
      "inputs": [
        {
          "indexed": true,
          "internalType": "address",
          "name": "owner",
          "type": "address"
        },
        {
          "indexed": true,
          "internalType": "address",
          "name": "approved",
          "type": "address"
        },
        {
          "indexed": true,
          "internalType": "uint256",
          "name": "tokenId",
          "type": "uint256"
        }
      ],
      "name": "Approval",
      "type": "event"
    },
    {
      "anonymous": false,
      "inputs": [
        {
          "indexed": true,
          "internalType": "address",
          "name": "owner",
          "type": "address"
        },
        {
          "indexed": true,
          "internalType": "address",
          "name": "operator",
          "type": "address"
        },
        {
          "indexed": false,
          "internalType": "bool",
          "name": "approved",
          "type": "bool"
        }
      ],
      "name": "ApprovalForAll",
      "type": "event"
    },
    {
      "anonymous": false,
      "inputs": [
        {
          "indexed": false,
          "internalType": "uint256",
          "name": "_fromTokenId",
          "type": "uint256"
        },
        {
          "indexed": false,
          "internalType": "uint256",
          "name": "_toTokenId",
          "type": "uint256"
        }
      ],
      "name": "BatchMetadataUpdate",
      "type": "event"
    },
    {
      "anonymous": false,
      "inputs": [
        {
          "indexed": false,
          "internalType": "uint256",
          "name": "_tokenId",
          "type": "uint256"
        }
      ],
      "name": "MetadataUpdate",
      "type": "event"
    },
    {
      "anonymous": false,
      "inputs": [
        {
          "indexed": true,
          "internalType": "address",
          "name": "previousOwner",
          "type": "address"
        },
        {
          "indexed": true,
          "internalType": "address",
          "name": "newOwner",
          "type": "address"
        }
      ],
      "name": "OwnershipTransferred",
      "type": "event"
    },
    {
      "anonymous": false,
      "inputs": [
        {
          "indexed": true,
          "internalType": "uint256",
          "name": "runningGameId",
          "type": "uint256"
        }
      ],
      "name": "RunningGameCreated",
      "type": "event"
    },
    {
      "anonymous": false,
      "inputs": [
        {
          "indexed": true,
          "internalType": "uint256",
          "name": "runningGameId",
          "type": "uint256"
        },
        {
          "indexed": false,
          "internalType": "enum IRunningGameMetadata.RunningGameStatus",
          "name": "status",
          "type": "uint8"
        }
      ],
      "name": "RunningGameStatusChanged",
      "type": "event"
    },
    {
      "anonymous": false,
      "inputs": [
        {
          "indexed": true,
          "internalType": "uint256",
          "name": "runningGameId",
          "type": "uint256"
        },
        {
          "indexed": false,
          "internalType": "address",
          "name": "winner",
          "type": "address"
        }
      ],
      "name": "RunningGameWon",
      "type": "event"
    },
    {
      "anonymous": false,
      "inputs": [
        {
          "indexed": true,
          "internalType": "address",
          "name": "from",
          "type": "address"
        },
        {
          "indexed": true,
          "internalType": "address",
          "name": "to",
          "type": "address"
        },
        {
          "indexed": true,
          "internalType": "uint256",
          "name": "tokenId",
          "type": "uint256"
        }
      ],
      "name": "Transfer",
      "type": "event"
    },
    {
      "inputs": [
        {
          "internalType": "address",
          "name": "to",
          "type": "address"
        },
        {
          "internalType": "uint256",
          "name": "tokenId",
          "type": "uint256"
        }
      ],
      "name": "approve",
      "outputs": [],
      "stateMutability": "nonpayable",
      "type": "function"
    },
    {
      "inputs": [
        {
          "internalType": "address",
          "name": "owner",
          "type": "address"
        }
      ],
      "name": "balanceOf",
      "outputs": [
        {
          "internalType": "uint256",
          "name": "",
          "type": "uint256"
        }
      ],
      "stateMutability": "view",
      "type": "function"
    },
    {
      "inputs": [
        {
          "internalType": "uint256",
          "name": "runningGameId",
          "type": "uint256"
        },
        {
          "internalType": "string",
          "name": "endedAt",
          "type": "string"
        },
        {
          "components": [
            {
              "internalType": "string",
              "name": "resultDetails",
              "type": "string"
            },
            {
              "internalType": "address",
              "name": "winner",
              "type": "address"
            }
          ],
          "internalType": "struct IRunningGameMetadata.RunningGameResults",
          "name": "results",
          "type": "tuple"
        }
      ],
      "name": "closeRunningGame",
      "outputs": [],
      "stateMutability": "nonpayable",
      "type": "function"
    },
    {
      "inputs": [
        {
          "internalType": "uint256",
          "name": "tokenId",
          "type": "uint256"
        }
      ],
      "name": "getApproved",
      "outputs": [
        {
          "internalType": "address",
          "name": "",
          "type": "address"
        }
      ],
      "stateMutability": "view",
      "type": "function"
    },
    {
      "inputs": [
        {
          "internalType": "uint256",
          "name": "runningGameId",
          "type": "uint256"
        }
      ],
      "name": "getGameMetadata",
      "outputs": [
        {
          "components": [
            {
              "internalType": "uint256",
              "name": "id",
              "type": "uint256"
            },
            {
              "internalType": "string",
              "name": "createdAt",
              "type": "string"
            },
            {
              "internalType": "string",
              "name": "startedAt",
              "type": "string"
            },
            {
              "internalType": "string",
              "name": "endedAt",
              "type": "string"
            },
            {
              "internalType": "enum IRunningGameMetadata.RunningGameStatus",
              "name": "status",
              "type": "uint8"
            },
            {
              "internalType": "string",
              "name": "gameToken",
              "type": "string"
            },
            {
              "components": [
                {
                  "internalType": "string",
                  "name": "resultDetails",
                  "type": "string"
                },
                {
                  "internalType": "address",
                  "name": "winner",
                  "type": "address"
                }
              ],
              "internalType": "struct IRunningGameMetadata.RunningGameResults",
              "name": "results",
              "type": "tuple"
            }
          ],
          "internalType": "struct IRunningGameMetadata.RunningGameMetadata",
          "name": "",
          "type": "tuple"
        }
      ],
      "stateMutability": "view",
      "type": "function"
    },
    {
      "inputs": [
        {
          "internalType": "address",
          "name": "owner",
          "type": "address"
        },
        {
          "internalType": "address",
          "name": "operator",
          "type": "address"
        }
      ],
      "name": "isApprovedForAll",
      "outputs": [
        {
          "internalType": "bool",
          "name": "",
          "type": "bool"
        }
      ],
      "stateMutability": "view",
      "type": "function"
    },
    {
      "inputs": [
        {
          "internalType": "string",
          "name": "token",
          "type": "string"
        }
      ],
      "name": "mintRunningGame",
      "outputs": [],
      "stateMutability": "nonpayable",
      "type": "function"
    },
    {
      "inputs": [],
      "name": "name",
      "outputs": [
        {
          "internalType": "string",
          "name": "",
          "type": "string"
        }
      ],
      "stateMutability": "view",
      "type": "function"
    },
    {
      "inputs": [],
      "name": "owner",
      "outputs": [
        {
          "internalType": "address",
          "name": "",
          "type": "address"
        }
      ],
      "stateMutability": "view",
      "type": "function"
    },
    {
      "inputs": [
        {
          "internalType": "uint256",
          "name": "tokenId",
          "type": "uint256"
        }
      ],
      "name": "ownerOf",
      "outputs": [
        {
          "internalType": "address",
          "name": "",
          "type": "address"
        }
      ],
      "stateMutability": "view",
      "type": "function"
    },
    {
      "inputs": [],
      "name": "renounceOwnership",
      "outputs": [],
      "stateMutability": "nonpayable",
      "type": "function"
    },
    {
      "inputs": [
        {
          "internalType": "address",
          "name": "from",
          "type": "address"
        },
        {
          "internalType": "address",
          "name": "to",
          "type": "address"
        },
        {
          "internalType": "uint256",
          "name": "tokenId",
          "type": "uint256"
        }
      ],
      "name": "safeTransferFrom",
      "outputs": [],
      "stateMutability": "nonpayable",
      "type": "function"
    },
    {
      "inputs": [
        {
          "internalType": "address",
          "name": "from",
          "type": "address"
        },
        {
          "internalType": "address",
          "name": "to",
          "type": "address"
        },
        {
          "internalType": "uint256",
          "name": "tokenId",
          "type": "uint256"
        },
        {
          "internalType": "bytes",
          "name": "data",
          "type": "bytes"
        }
      ],
      "name": "safeTransferFrom",
      "outputs": [],
      "stateMutability": "nonpayable",
      "type": "function"
    },
    {
      "inputs": [
        {
          "internalType": "address",
          "name": "operator",
          "type": "address"
        },
        {
          "internalType": "bool",
          "name": "approved",
          "type": "bool"
        }
      ],
      "name": "setApprovalForAll",
      "outputs": [],
      "stateMutability": "nonpayable",
      "type": "function"
    },
    {
      "inputs": [
        {
          "internalType": "uint256",
          "name": "runningGameId",
          "type": "uint256"
        },
        {
          "internalType": "string",
          "name": "_runningGameURI",
          "type": "string"
        }
      ],
      "name": "setGameURI",
      "outputs": [],
      "stateMutability": "nonpayable",
      "type": "function"
    },
    {
      "inputs": [
        {
          "internalType": "bytes4",
          "name": "interfaceId",
          "type": "bytes4"
        }
      ],
      "name": "supportsInterface",
      "outputs": [
        {
          "internalType": "bool",
          "name": "",
          "type": "bool"
        }
      ],
      "stateMutability": "view",
      "type": "function"
    },
    {
      "inputs": [],
      "name": "symbol",
      "outputs": [
        {
          "internalType": "string",
          "name": "",
          "type": "string"
        }
      ],
      "stateMutability": "view",
      "type": "function"
    },
    {
      "inputs": [
        {
          "internalType": "uint256",
          "name": "tokenId",
          "type": "uint256"
        }
      ],
      "name": "tokenURI",
      "outputs": [
        {
          "internalType": "string",
          "name": "",
          "type": "string"
        }
      ],
      "stateMutability": "view",
      "type": "function"
    },
    {
      "inputs": [
        {
          "internalType": "address",
          "name": "from",
          "type": "address"
        },
        {
          "internalType": "address",
          "name": "to",
          "type": "address"
        },
        {
          "internalType": "uint256",
          "name": "tokenId",
          "type": "uint256"
        }
      ],
      "name": "transferFrom",
      "outputs": [],
      "stateMutability": "nonpayable",
      "type": "function"
    },
    {
      "inputs": [
        {
          "internalType": "address",
          "name": "newOwner",
          "type": "address"
        }
      ],
      "name": "transferOwnership",
      "outputs": [],
      "stateMutability": "nonpayable",
      "type": "function"
    },
    {
      "inputs": [
        {
          "internalType": "uint256",
          "name": "runningGameId",
          "type": "uint256"
        },
        {
          "internalType": "enum IRunningGameMetadata.RunningGameStatus",
          "name": "newStatus",
          "type": "uint8"
        }
      ],
      "name": "updateRunningGameStatus",
      "outputs": [],
      "stateMutability": "nonpayable",
      "type": "function"
    }
  ],
  "bytecode": "0x60806040523480156200001157600080fd5b506040516200251b3803806200251b83398101604081905262000034916200013d565b6040518060400160405280600c81526020016b54657861732d486f6c64656d60a01b8152506040518060400160405280600c81526020016b54455841532d484f4c44454d60a01b8152508260006001600160a01b0316816001600160a01b031603620000ba57604051631e4fbdf760e01b81526000600482015260240160405180910390fd5b620000c581620000ed565b506001620000d4838262000214565b506002620000e3828262000214565b50505050620002e0565b600080546001600160a01b038381166001600160a01b0319831681178455604051919092169283917f8be0079c531659141344cd1fd0a4f28419497f9722a3daafe3b4186f6b6457e09190a35050565b6000602082840312156200015057600080fd5b81516001600160a01b03811681146200016857600080fd5b9392505050565b634e487b7160e01b600052604160045260246000fd5b600181811c908216806200019a57607f821691505b602082108103620001bb57634e487b7160e01b600052602260045260246000fd5b50919050565b601f8211156200020f57600081815260208120601f850160051c81016020861015620001ea5750805b601f850160051c820191505b818110156200020b57828155600101620001f6565b5050505b505050565b81516001600160401b038111156200023057620002306200016f565b620002488162000241845462000185565b84620001c1565b602080601f831160018114620002805760008415620002675750858301515b600019600386901b1c1916600185901b1785556200020b565b600085815260208120601f198616915b82811015620002b15788860151825594840194600190910190840162000290565b5085821015620002d05787850151600019600388901b60f8161c191681555b5050505050600190811b01905550565b61222b80620002f06000396000f3fe608060405234801561001057600080fd5b50600436106101775760003560e01c806370a08231116100d8578063b88d4fde1161008c578063c87b56dd11610066578063c87b56dd14610306578063e985e9c514610319578063f2fde38b1461035557600080fd5b8063b88d4fde146102cd578063bc2e62ca146102e0578063c730cc64146102f357600080fd5b80638da5cb5b116100bd5780638da5cb5b146102a157806395d89b41146102b2578063a22cb465146102ba57600080fd5b806370a0823114610278578063715018a61461029957600080fd5b806321b113f31161012f57806342842e0e1161011457806342842e0e1461023f57806356e5848e146102525780636352211e1461026557600080fd5b806321b113f31461020c57806323b872dd1461022c57600080fd5b8063081812fc11610160578063081812fc146101b9578063095ea7b3146101e457806311cc1f6f146101f957600080fd5b806301ffc9a71461017c57806306fdde03146101a4575b600080fd5b61018f61018a36600461183a565b610368565b60405190151581526020015b60405180910390f35b6101ac6103c4565b60405161019b91906118a7565b6101cc6101c73660046118ba565b610456565b6040516001600160a01b03909116815260200161019b565b6101f76101f23660046118e8565b61047f565b005b6101f761020736600461195d565b61048e565b61021f61021a3660046118ba565b6104f1565b60405161019b9190611a36565b6101f761023a366004611b20565b61085c565b6101f761024d366004611b20565b61091e565b6101f7610260366004611b61565b61093e565b6101cc6102733660046118ba565b6109f3565b61028b610286366004611ba3565b6109fe565b60405190815260200161019b565b6101f7610a5f565b6000546001600160a01b03166101cc565b6101ac610a73565b6101f76102c8366004611bc0565b610a82565b6101f76102db366004611c2d565b610a8d565b6101f76102ee366004611d0d565b610aa4565b6101f7610301366004611d36565b610af9565b6101ac6103143660046118ba565b610b39565b61018f610327366004611d82565b6001600160a01b03918216600090815260066020908152604080832093909416825291909152205460ff1690565b6101f7610363366004611ba3565b610c4a565b60007fffffffff0000000000000000000000000000000000000000000000000000000082167f490649060000000000000000000000000000000000000000000000000000000014806103be57506103be82610ca1565b92915050565b6060600180546103d390611db0565b80601f01602080910402602001604051908101604052809291908181526020018280546103ff90611db0565b801561044c5780601f106104215761010080835404028352916020019161044c565b820191906000526020600020905b81548152906001019060200180831161042f57829003601f168201915b5050505050905090565b600061046182610d84565b506000828152600560205260409020546001600160a01b03166103be565b61048a828233610dd6565b5050565b6000848152600960205260409020600381016104ab848683611e51565b506004810180547fffffffffffffffffffffffffffffffffffffffffffffffffffffffffffffff0016600217905581600682016104e88282611f1e565b50505050505050565b6104f961179b565b600960008381526020019081526020016000206040518060e00160405290816000820154815260200160018201805461053190611db0565b80601f016020809104026020016040519081016040528092919081815260200182805461055d90611db0565b80156105aa5780601f1061057f576101008083540402835291602001916105aa565b820191906000526020600020905b81548152906001019060200180831161058d57829003601f168201915b505050505081526020016002820180546105c390611db0565b80601f01602080910402602001604051908101604052809291908181526020018280546105ef90611db0565b801561063c5780601f106106115761010080835404028352916020019161063c565b820191906000526020600020905b81548152906001019060200180831161061f57829003601f168201915b5050505050815260200160038201805461065590611db0565b80601f016020809104026020016040519081016040528092919081815260200182805461068190611db0565b80156106ce5780601f106106a3576101008083540402835291602001916106ce565b820191906000526020600020905b8154815290600101906020018083116106b157829003601f168201915b5050509183525050600482015460209091019060ff1660038111156106f5576106f56119d5565b6003811115610706576107066119d5565b815260200160058201805461071a90611db0565b80601f016020809104026020016040519081016040528092919081815260200182805461074690611db0565b80156107935780601f1061076857610100808354040283529160200191610793565b820191906000526020600020905b81548152906001019060200180831161077657829003601f168201915b50505050508152602001600682016040518060400160405290816000820180546107bc90611db0565b80601f01602080910402602001604051908101604052809291908181526020018280546107e890611db0565b80156108355780601f1061080a57610100808354040283529160200191610835565b820191906000526020600020905b81548152906001019060200180831161081857829003601f168201915b5050509183525050600191909101546001600160a01b031660209091015290525092915050565b6001600160a01b0382166108a4576040517f64a0ae92000000000000000000000000000000000000000000000000000000008152600060048201526024015b60405180910390fd5b60006108b1838333610de3565b9050836001600160a01b0316816001600160a01b031614610918576040517f64283d7b0000000000000000000000000000000000000000000000000000000081526001600160a01b038086166004830152602482018490528216604482015260640161089b565b50505050565b61093983838360405180602001604052806000815250610a8d565b505050565b610946610ef4565b60085461097761095e6000546001600160a01b031690565b6008805490600061096e8361206c565b91905055610f3a565b60008181526009602052604090208181556004810180547fffffffffffffffffffffffffffffffffffffffffffffffffffffffffffffff00169055600581016109c1848683611e51565b5060405182907f36e126f424c5617dbfdb44115481668647efff3ab180824aa3eaf56a6e677bb290600090a250505050565b60006103be82610d84565b60006001600160a01b038216610a43576040517f89c62b640000000000000000000000000000000000000000000000000000000081526000600482015260240161089b565b506001600160a01b031660009081526004602052604090205490565b610a67610ef4565b610a716000610f54565b565b6060600280546103d390611db0565b61048a338383610fbc565b610a9884848461085c565b61091884848484611092565b600082815260096020526040902060040180548291907fffffffffffffffffffffffffffffffffffffffffffffffffffffffffffffff00166001836003811115610af057610af06119d5565b02179055505050565b6109398383838080601f01602080910402602001604051908101604052809392919081815260200183838082843760009201919091525061123792505050565b6060610b4482610d84565b5060008281526007602052604081208054610b5e90611db0565b80601f0160208091040260200160405190810160405280929190818152602001828054610b8a90611db0565b8015610bd75780601f10610bac57610100808354040283529160200191610bd7565b820191906000526020600020905b815481529060010190602001808311610bba57829003601f168201915b505050505090506000610bf560408051602081019091526000815290565b90508051600003610c07575092915050565b815115610c39578082604051602001610c219291906120ad565b60405160208183030381529060405292505050919050565b610c4284611287565b949350505050565b610c52610ef4565b6001600160a01b038116610c95576040517f1e4fbdf70000000000000000000000000000000000000000000000000000000081526000600482015260240161089b565b610c9e81610f54565b50565b60007fffffffff0000000000000000000000000000000000000000000000000000000082167f80ac58cd000000000000000000000000000000000000000000000000000000001480610d3457507fffffffff0000000000000000000000000000000000000000000000000000000082167f5b5e139f00000000000000000000000000000000000000000000000000000000145b806103be57507f01ffc9a7000000000000000000000000000000000000000000000000000000007fffffffff000000000000000000000000000000000000000000000000000000008316146103be565b6000818152600360205260408120546001600160a01b0316806103be576040517f7e2732890000000000000000000000000000000000000000000000000000000081526004810184905260240161089b565b61093983838360016112fc565b6000828152600360205260408120546001600160a01b0390811690831615610e1057610e10818486611452565b6001600160a01b03811615610e4e57610e2d6000856000806112fc565b6001600160a01b038116600090815260046020526040902080546000190190555b6001600160a01b03851615610e7d576001600160a01b0385166000908152600460205260409020805460010190555b60008481526003602052604080822080547fffffffffffffffffffffffff0000000000000000000000000000000000000000166001600160a01b0389811691821790925591518793918516917fddf252ad1be2c89b69c2b068fc378daa952ba7f163c4a11628f55a4df523b3ef91a4949350505050565b6000546001600160a01b03163314610a71576040517f118cdaa700000000000000000000000000000000000000000000000000000000815233600482015260240161089b565b61048a8282604051806020016040528060008152506114e8565b600080546001600160a01b038381167fffffffffffffffffffffffff0000000000000000000000000000000000000000831681178455604051919092169283917f8be0079c531659141344cd1fd0a4f28419497f9722a3daafe3b4186f6b6457e09190a35050565b6001600160a01b038216611007576040517f5b08ba180000000000000000000000000000000000000000000000000000000081526001600160a01b038316600482015260240161089b565b6001600160a01b0383811660008181526006602090815260408083209487168084529482529182902080547fffffffffffffffffffffffffffffffffffffffffffffffffffffffffffffff001686151590811790915591519182527f17307eab39ab6107e8899845ad3d59bd9653f200f220920489ca2b5937696c31910160405180910390a3505050565b6001600160a01b0383163b15610918576040517f150b7a020000000000000000000000000000000000000000000000000000000081526001600160a01b0384169063150b7a02906110ed9033908890879087906004016120dc565b6020604051808303816000875af1925050508015611128575060408051601f3d908101601f1916820190925261112591810190612118565b60015b6111aa573d808015611156576040519150601f19603f3d011682016040523d82523d6000602084013e61115b565b606091505b5080516000036111a2576040517f64a0ae920000000000000000000000000000000000000000000000000000000081526001600160a01b038516600482015260240161089b565b805181602001fd5b7fffffffff0000000000000000000000000000000000000000000000000000000081167f150b7a020000000000000000000000000000000000000000000000000000000014611230576040517f64a0ae920000000000000000000000000000000000000000000000000000000081526001600160a01b038516600482015260240161089b565b5050505050565b600082815260076020526040902061124f8282612135565b506040518281527ff8e1a15aba9398e019f0b49df1a4fde98ee17ae345cb5f6b5e2c27f5033e8ce79060200160405180910390a15050565b606061129282610d84565b5060006112aa60408051602081019091526000815290565b905060008151116112ca57604051806020016040528060008152506112f5565b806112d4846114ff565b6040516020016112e59291906120ad565b6040516020818303038152906040525b9392505050565b808061131057506001600160a01b03821615155b1561140a57600061132084610d84565b90506001600160a01b0383161580159061134c5750826001600160a01b0316816001600160a01b031614155b801561137e57506001600160a01b0380821660009081526006602090815260408083209387168352929052205460ff16155b156113c0576040517fa9fbf51f0000000000000000000000000000000000000000000000000000000081526001600160a01b038416600482015260240161089b565b81156114085783856001600160a01b0316826001600160a01b03167f8c5be1e5ebec7d5bd14f71427d1e84f3dd0314c0f7b2291e5b200ac8c7c3b92560405160405180910390a45b505b5050600090815260056020526040902080547fffffffffffffffffffffffff0000000000000000000000000000000000000000166001600160a01b0392909216919091179055565b61145d83838361159f565b610939576001600160a01b0383166114a4576040517f7e2732890000000000000000000000000000000000000000000000000000000081526004810182905260240161089b565b6040517f177e802f0000000000000000000000000000000000000000000000000000000081526001600160a01b03831660048201526024810182905260440161089b565b6114f28383611622565b6109396000848484611092565b6060600061150c836116b9565b600101905060008167ffffffffffffffff81111561152c5761152c611bfe565b6040519080825280601f01601f191660200182016040528015611556576020820181803683370190505b5090508181016020015b600019017f3031323334353637383961626364656600000000000000000000000000000000600a86061a8153600a850494508461156057509392505050565b60006001600160a01b03831615801590610c425750826001600160a01b0316846001600160a01b031614806115f957506001600160a01b0380851660009081526006602090815260408083209387168352929052205460ff165b80610c425750506000908152600560205260409020546001600160a01b03908116911614919050565b6001600160a01b038216611665576040517f64a0ae920000000000000000000000000000000000000000000000000000000081526000600482015260240161089b565b600061167383836000610de3565b90506001600160a01b03811615610939576040517f73c6ac6e0000000000000000000000000000000000000000000000000000000081526000600482015260240161089b565b6000807a184f03e93ff9f4daa797ed6e38ed64bf6a1f0100000000000000008310611702577a184f03e93ff9f4daa797ed6e38ed64bf6a1f010000000000000000830492506040015b6d04ee2d6d415b85acef8100000000831061172e576d04ee2d6d415b85acef8100000000830492506020015b662386f26fc10000831061174c57662386f26fc10000830492506010015b6305f5e1008310611764576305f5e100830492506008015b612710831061177857612710830492506004015b6064831061178a576064830492506002015b600a83106103be5760010192915050565b6040518060e0016040528060008152602001606081526020016060815260200160608152602001600060038111156117d5576117d56119d5565b81526020016060815260200161180760405180604001604052806060815260200160006001600160a01b031681525090565b905290565b7fffffffff0000000000000000000000000000000000000000000000000000000081168114610c9e57600080fd5b60006020828403121561184c57600080fd5b81356112f58161180c565b60005b8381101561187257818101518382015260200161185a565b50506000910152565b60008151808452611893816020860160208601611857565b601f01601f19169290920160200192915050565b6020815260006112f5602083018461187b565b6000602082840312156118cc57600080fd5b5035919050565b6001600160a01b0381168114610c9e57600080fd5b600080604083850312156118fb57600080fd5b8235611906816118d3565b946020939093013593505050565b60008083601f84011261192657600080fd5b50813567ffffffffffffffff81111561193e57600080fd5b60208301915083602082850101111561195657600080fd5b9250929050565b6000806000806060858703121561197357600080fd5b84359350602085013567ffffffffffffffff8082111561199257600080fd5b61199e88838901611914565b909550935060408701359150808211156119b757600080fd5b508501604081880312156119ca57600080fd5b939692955090935050565b7f4e487b7100000000000000000000000000000000000000000000000000000000600052602160045260246000fd5b6000815160408452611a19604085018261187b565b6020938401516001600160a01b0316949093019390935250919050565b60208152815160208201526000602083015160e06040840152611a5d61010084018261187b565b90506040840151601f1980858403016060860152611a7b838361187b565b92506060860151915080858403016080860152611a98838361187b565b92506080860151915060048210611ad8577f4e487b7100000000000000000000000000000000000000000000000000000000600052602160045260246000fd5b8160a086015260a08601519150808584030160c0860152611af9838361187b565b925060c08601519150808584030160e086015250611b178282611a04565b95945050505050565b600080600060608486031215611b3557600080fd5b8335611b40816118d3565b92506020840135611b50816118d3565b929592945050506040919091013590565b60008060208385031215611b7457600080fd5b823567ffffffffffffffff811115611b8b57600080fd5b611b9785828601611914565b90969095509350505050565b600060208284031215611bb557600080fd5b81356112f5816118d3565b60008060408385031215611bd357600080fd5b8235611bde816118d3565b915060208301358015158114611bf357600080fd5b809150509250929050565b7f4e487b7100000000000000000000000000000000000000000000000000000000600052604160045260246000fd5b60008060008060808587031215611c4357600080fd5b8435611c4e816118d3565b93506020850135611c5e816118d3565b925060408501359150606085013567ffffffffffffffff80821115611c8257600080fd5b818701915087601f830112611c9657600080fd5b813581811115611ca857611ca8611bfe565b604051601f8201601f19908116603f01168101908382118183101715611cd057611cd0611bfe565b816040528281528a6020848701011115611ce957600080fd5b82602086016020830137600060208483010152809550505050505092959194509250565b60008060408385031215611d2057600080fd5b82359150602083013560048110611bf357600080fd5b600080600060408486031215611d4b57600080fd5b83359250602084013567ffffffffffffffff811115611d6957600080fd5b611d7586828701611914565b9497909650939450505050565b60008060408385031215611d9557600080fd5b8235611da0816118d3565b91506020830135611bf3816118d3565b600181811c90821680611dc457607f821691505b602082108103611dfd577f4e487b7100000000000000000000000000000000000000000000000000000000600052602260045260246000fd5b50919050565b601f82111561093957600081815260208120601f850160051c81016020861015611e2a5750805b601f850160051c820191505b81811015611e4957828155600101611e36565b505050505050565b67ffffffffffffffff831115611e6957611e69611bfe565b611e7d83611e778354611db0565b83611e03565b6000601f841160018114611eb15760008515611e995750838201355b600019600387901b1c1916600186901b178355611230565b600083815260209020601f19861690835b82811015611ee25786850135825560209485019460019092019101611ec2565b5086821015611eff5760001960f88860031b161c19848701351681555b505060018560011b0183555050505050565b600081356103be816118d3565b81357fffffffffffffffffffffffffffffffffffffffffffffffffffffffffffffffe1833603018112611f5057600080fd5b8201803567ffffffffffffffff811115611f6957600080fd5b60208136038184011315611f7c57600080fd5b611f9082611f8a8654611db0565b86611e03565b6000601f831160018114611fc65760008415611fae57508482018301355b600019600386901b1c1916600185901b178655612023565b600086815260209020601f19851690835b82811015611ff8578785018601358255938501936001909101908501611fd7565b50858210156120175760001960f88760031b161c198585890101351681555b505060018460011b0186555b5050611230612033828701611f11565b600186016001600160a01b0382167fffffffffffffffffffffffff00000000000000000000000000000000000000008254161781555050565b600060001982036120a6577f4e487b7100000000000000000000000000000000000000000000000000000000600052601160045260246000fd5b5060010190565b600083516120bf818460208801611857565b8351908301906120d3818360208801611857565b01949350505050565b60006001600160a01b0380871683528086166020840152508360408301526080606083015261210e608083018461187b565b9695505050505050565b60006020828403121561212a57600080fd5b81516112f58161180c565b815167ffffffffffffffff81111561214f5761214f611bfe565b6121638161215d8454611db0565b84611e03565b602080601f83116001811461219857600084156121805750858301515b600019600386901b1c1916600185901b178555611e49565b600085815260208120601f198616915b828110156121c7578886015182559484019460019091019084016121a8565b50858210156121e55787850151600019600388901b60f8161c191681555b5050505050600190811b0190555056fea2646970667358221220f4f5f5d61d6f437bea68077f40baa3818baa53919c800c42061ef965923cf22c64736f6c63430008140033",
  "linkReferences": {},
  "deployedLinkReferences": {}
}