{
  "_format": "hh-sol-artifact-1",
  "contractName": "Blackjack",
  "sourceName": "contracts/games/Blackjack.sol",
  "abi": [
    {
      "inputs": [
        {
          "internalType": "address",
          "name": "house",
          "type": "address"
        }
      ],
      "stateMutability": "nonpayable",
      "type": "constructor"
    },
    {
      "inputs": [
        {
          "internalType": "address",
          "name": "sender",
          "type": "address"
        },
        {
          "internalType": "uint256",
          "name": "tokenId",
          "type": "uint256"
        },
        {
          "internalType": "address",
          "name": "owner",
          "type": "address"
        }
      ],
      "name": "ERC721IncorrectOwner",
      "type": "error"
    },
    {
      "inputs": [
        {
          "internalType": "address",
          "name": "operator",
          "type": "address"
        },
        {
          "internalType": "uint256",
          "name": "tokenId",
          "type": "uint256"
        }
      ],
      "name": "ERC721InsufficientApproval",
      "type": "error"
    },
    {
      "inputs": [
        {
          "internalType": "address",
          "name": "approver",
          "type": "address"
        }
      ],
      "name": "ERC721InvalidApprover",
      "type": "error"
    },
    {
      "inputs": [
        {
          "internalType": "address",
          "name": "operator",
          "type": "address"
        }
      ],
      "name": "ERC721InvalidOperator",
      "type": "error"
    },
    {
      "inputs": [
        {
          "internalType": "address",
          "name": "owner",
          "type": "address"
        }
      ],
      "name": "ERC721InvalidOwner",
      "type": "error"
    },
    {
      "inputs": [
        {
          "internalType": "address",
          "name": "receiver",
          "type": "address"
        }
      ],
      "name": "ERC721InvalidReceiver",
      "type": "error"
    },
    {
      "inputs": [
        {
          "internalType": "address",
          "name": "sender",
          "type": "address"
        }
      ],
      "name": "ERC721InvalidSender",
      "type": "error"
    },
    {
      "inputs": [
        {
          "internalType": "uint256",
          "name": "tokenId",
          "type": "uint256"
        }
      ],
      "name": "ERC721NonexistentToken",
      "type": "error"
    },
    {
      "inputs": [
        {
          "internalType": "address",
          "name": "owner",
          "type": "address"
        }
      ],
      "name": "OwnableInvalidOwner",
      "type": "error"
    },
    {
      "inputs": [
        {
          "internalType": "address",
          "name": "account",
          "type": "address"
        }
      ],
      "name": "OwnableUnauthorizedAccount",
      "type": "error"
    },
    {
      "anonymous": false,
      "inputs": [
        {
          "indexed": true,
          "internalType": "address",
          "name": "owner",
          "type": "address"
        },
        {
          "indexed": true,
          "internalType": "address",
          "name": "approved",
          "type": "address"
        },
        {
          "indexed": true,
          "internalType": "uint256",
          "name": "tokenId",
          "type": "uint256"
        }
      ],
      "name": "Approval",
      "type": "event"
    },
    {
      "anonymous": false,
      "inputs": [
        {
          "indexed": true,
          "internalType": "address",
          "name": "owner",
          "type": "address"
        },
        {
          "indexed": true,
          "internalType": "address",
          "name": "operator",
          "type": "address"
        },
        {
          "indexed": false,
          "internalType": "bool",
          "name": "approved",
          "type": "bool"
        }
      ],
      "name": "ApprovalForAll",
      "type": "event"
    },
    {
      "anonymous": false,
      "inputs": [
        {
          "indexed": false,
          "internalType": "uint256",
          "name": "_fromTokenId",
          "type": "uint256"
        },
        {
          "indexed": false,
          "internalType": "uint256",
          "name": "_toTokenId",
          "type": "uint256"
        }
      ],
      "name": "BatchMetadataUpdate",
      "type": "event"
    },
    {
      "anonymous": false,
      "inputs": [
        {
          "indexed": false,
          "internalType": "uint256",
          "name": "_tokenId",
          "type": "uint256"
        }
      ],
      "name": "MetadataUpdate",
      "type": "event"
    },
    {
      "anonymous": false,
      "inputs": [
        {
          "indexed": true,
          "internalType": "address",
          "name": "previousOwner",
          "type": "address"
        },
        {
          "indexed": true,
          "internalType": "address",
          "name": "newOwner",
          "type": "address"
        }
      ],
      "name": "OwnershipTransferred",
      "type": "event"
    },
    {
      "anonymous": false,
      "inputs": [
        {
          "indexed": true,
          "internalType": "uint256",
          "name": "runningGameId",
          "type": "uint256"
        }
      ],
      "name": "RunningGameCreated",
      "type": "event"
    },
    {
      "anonymous": false,
      "inputs": [
        {
          "indexed": true,
          "internalType": "uint256",
          "name": "runningGameId",
          "type": "uint256"
        },
        {
          "indexed": false,
          "internalType": "enum IRunningGameMetadata.RunningGameStatus",
          "name": "status",
          "type": "uint8"
        }
      ],
      "name": "RunningGameStatusChanged",
      "type": "event"
    },
    {
      "anonymous": false,
      "inputs": [
        {
          "indexed": true,
          "internalType": "uint256",
          "name": "runningGameId",
          "type": "uint256"
        },
        {
          "indexed": false,
          "internalType": "address",
          "name": "winner",
          "type": "address"
        }
      ],
      "name": "RunningGameWon",
      "type": "event"
    },
    {
      "anonymous": false,
      "inputs": [
        {
          "indexed": true,
          "internalType": "address",
          "name": "from",
          "type": "address"
        },
        {
          "indexed": true,
          "internalType": "address",
          "name": "to",
          "type": "address"
        },
        {
          "indexed": true,
          "internalType": "uint256",
          "name": "tokenId",
          "type": "uint256"
        }
      ],
      "name": "Transfer",
      "type": "event"
    },
    {
      "inputs": [
        {
          "internalType": "address",
          "name": "to",
          "type": "address"
        },
        {
          "internalType": "uint256",
          "name": "tokenId",
          "type": "uint256"
        }
      ],
      "name": "approve",
      "outputs": [],
      "stateMutability": "nonpayable",
      "type": "function"
    },
    {
      "inputs": [
        {
          "internalType": "address",
          "name": "owner",
          "type": "address"
        }
      ],
      "name": "balanceOf",
      "outputs": [
        {
          "internalType": "uint256",
          "name": "",
          "type": "uint256"
        }
      ],
      "stateMutability": "view",
      "type": "function"
    },
    {
      "inputs": [],
      "name": "bet",
      "outputs": [],
      "stateMutability": "nonpayable",
      "type": "function"
    },
    {
      "inputs": [
        {
          "internalType": "uint256",
          "name": "runningGameId",
          "type": "uint256"
        },
        {
          "internalType": "string",
          "name": "endedAt",
          "type": "string"
        },
        {
          "components": [
            {
              "internalType": "string",
              "name": "resultDetails",
              "type": "string"
            },
            {
              "internalType": "address",
              "name": "winner",
              "type": "address"
            }
          ],
          "internalType": "struct IRunningGameMetadata.RunningGameResults",
          "name": "results",
          "type": "tuple"
        }
      ],
      "name": "closeRunningGame",
      "outputs": [],
      "stateMutability": "nonpayable",
      "type": "function"
    },
    {
      "inputs": [],
      "name": "doubleDown",
      "outputs": [],
      "stateMutability": "nonpayable",
      "type": "function"
    },
    {
      "inputs": [
        {
          "internalType": "uint256",
          "name": "tokenId",
          "type": "uint256"
        }
      ],
      "name": "getApproved",
      "outputs": [
        {
          "internalType": "address",
          "name": "",
          "type": "address"
        }
      ],
      "stateMutability": "view",
      "type": "function"
    },
    {
      "inputs": [
        {
          "internalType": "uint256",
          "name": "runningGameId",
          "type": "uint256"
        }
      ],
      "name": "getGameMetadata",
      "outputs": [
        {
          "components": [
            {
              "internalType": "uint256",
              "name": "id",
              "type": "uint256"
            },
            {
              "internalType": "string",
              "name": "createdAt",
              "type": "string"
            },
            {
              "internalType": "string",
              "name": "startedAt",
              "type": "string"
            },
            {
              "internalType": "string",
              "name": "endedAt",
              "type": "string"
            },
            {
              "internalType": "enum IRunningGameMetadata.RunningGameStatus",
              "name": "status",
              "type": "uint8"
            },
            {
              "internalType": "string",
              "name": "gameToken",
              "type": "string"
            },
            {
              "components": [
                {
                  "internalType": "string",
                  "name": "resultDetails",
                  "type": "string"
                },
                {
                  "internalType": "address",
                  "name": "winner",
                  "type": "address"
                }
              ],
              "internalType": "struct IRunningGameMetadata.RunningGameResults",
              "name": "results",
              "type": "tuple"
            }
          ],
          "internalType": "struct IRunningGameMetadata.RunningGameMetadata",
          "name": "",
          "type": "tuple"
        }
      ],
      "stateMutability": "view",
      "type": "function"
    },
    {
      "inputs": [],
      "name": "hit",
      "outputs": [],
      "stateMutability": "nonpayable",
      "type": "function"
    },
    {
      "inputs": [],
      "name": "initiateGame",
      "outputs": [],
      "stateMutability": "nonpayable",
      "type": "function"
    },
    {
      "inputs": [
        {
          "internalType": "address",
          "name": "owner",
          "type": "address"
        },
        {
          "internalType": "address",
          "name": "operator",
          "type": "address"
        }
      ],
      "name": "isApprovedForAll",
      "outputs": [
        {
          "internalType": "bool",
          "name": "",
          "type": "bool"
        }
      ],
      "stateMutability": "view",
      "type": "function"
    },
    {
      "inputs": [
        {
          "internalType": "string",
          "name": "token",
          "type": "string"
        }
      ],
      "name": "mintRunningGame",
      "outputs": [],
      "stateMutability": "nonpayable",
      "type": "function"
    },
    {
      "inputs": [],
      "name": "name",
      "outputs": [
        {
          "internalType": "string",
          "name": "",
          "type": "string"
        }
      ],
      "stateMutability": "view",
      "type": "function"
    },
    {
      "inputs": [],
      "name": "owner",
      "outputs": [
        {
          "internalType": "address",
          "name": "",
          "type": "address"
        }
      ],
      "stateMutability": "view",
      "type": "function"
    },
    {
      "inputs": [
        {
          "internalType": "uint256",
          "name": "tokenId",
          "type": "uint256"
        }
      ],
      "name": "ownerOf",
      "outputs": [
        {
          "internalType": "address",
          "name": "",
          "type": "address"
        }
      ],
      "stateMutability": "view",
      "type": "function"
    },
    {
      "inputs": [],
      "name": "renounceOwnership",
      "outputs": [],
      "stateMutability": "nonpayable",
      "type": "function"
    },
    {
      "inputs": [
        {
          "internalType": "address",
          "name": "from",
          "type": "address"
        },
        {
          "internalType": "address",
          "name": "to",
          "type": "address"
        },
        {
          "internalType": "uint256",
          "name": "tokenId",
          "type": "uint256"
        }
      ],
      "name": "safeTransferFrom",
      "outputs": [],
      "stateMutability": "nonpayable",
      "type": "function"
    },
    {
      "inputs": [
        {
          "internalType": "address",
          "name": "from",
          "type": "address"
        },
        {
          "internalType": "address",
          "name": "to",
          "type": "address"
        },
        {
          "internalType": "uint256",
          "name": "tokenId",
          "type": "uint256"
        },
        {
          "internalType": "bytes",
          "name": "data",
          "type": "bytes"
        }
      ],
      "name": "safeTransferFrom",
      "outputs": [],
      "stateMutability": "nonpayable",
      "type": "function"
    },
    {
      "inputs": [
        {
          "internalType": "address",
          "name": "operator",
          "type": "address"
        },
        {
          "internalType": "bool",
          "name": "approved",
          "type": "bool"
        }
      ],
      "name": "setApprovalForAll",
      "outputs": [],
      "stateMutability": "nonpayable",
      "type": "function"
    },
    {
      "inputs": [
        {
          "internalType": "uint256",
          "name": "runningGameId",
          "type": "uint256"
        },
        {
          "internalType": "string",
          "name": "_runningGameURI",
          "type": "string"
        }
      ],
      "name": "setGameURI",
      "outputs": [],
      "stateMutability": "nonpayable",
      "type": "function"
    },
    {
      "inputs": [],
      "name": "split",
      "outputs": [],
      "stateMutability": "nonpayable",
      "type": "function"
    },
    {
      "inputs": [],
      "name": "stay",
      "outputs": [],
      "stateMutability": "nonpayable",
      "type": "function"
    },
    {
      "inputs": [
        {
          "internalType": "bytes4",
          "name": "interfaceId",
          "type": "bytes4"
        }
      ],
      "name": "supportsInterface",
      "outputs": [
        {
          "internalType": "bool",
          "name": "",
          "type": "bool"
        }
      ],
      "stateMutability": "view",
      "type": "function"
    },
    {
      "inputs": [],
      "name": "symbol",
      "outputs": [
        {
          "internalType": "string",
          "name": "",
          "type": "string"
        }
      ],
      "stateMutability": "view",
      "type": "function"
    },
    {
      "inputs": [
        {
          "internalType": "uint256",
          "name": "tokenId",
          "type": "uint256"
        }
      ],
      "name": "tokenURI",
      "outputs": [
        {
          "internalType": "string",
          "name": "",
          "type": "string"
        }
      ],
      "stateMutability": "view",
      "type": "function"
    },
    {
      "inputs": [
        {
          "internalType": "address",
          "name": "from",
          "type": "address"
        },
        {
          "internalType": "address",
          "name": "to",
          "type": "address"
        },
        {
          "internalType": "uint256",
          "name": "tokenId",
          "type": "uint256"
        }
      ],
      "name": "transferFrom",
      "outputs": [],
      "stateMutability": "nonpayable",
      "type": "function"
    },
    {
      "inputs": [
        {
          "internalType": "address",
          "name": "newOwner",
          "type": "address"
        }
      ],
      "name": "transferOwnership",
      "outputs": [],
      "stateMutability": "nonpayable",
      "type": "function"
    },
    {
      "inputs": [
        {
          "internalType": "uint256",
          "name": "runningGameId",
          "type": "uint256"
        },
        {
          "internalType": "enum IRunningGameMetadata.RunningGameStatus",
          "name": "newStatus",
          "type": "uint8"
        }
      ],
      "name": "updateRunningGameStatus",
      "outputs": [],
      "stateMutability": "nonpayable",
      "type": "function"
    }
  ],
  "bytecode": "0x60806040523480156200001157600080fd5b506040516200255738038062002557833981016040819052620000349162000137565b60405180604001604052806009815260200168426c61636b6a61636b60b81b81525060405180604001604052806009815260200168424c41434b4a41434b60b81b8152508260006001600160a01b0316816001600160a01b031603620000b457604051631e4fbdf760e01b81526000600482015260240160405180910390fd5b620000bf81620000e7565b506001620000ce83826200020e565b506002620000dd82826200020e565b50505050620002da565b600080546001600160a01b038381166001600160a01b0319831681178455604051919092169283917f8be0079c531659141344cd1fd0a4f28419497f9722a3daafe3b4186f6b6457e09190a35050565b6000602082840312156200014a57600080fd5b81516001600160a01b03811681146200016257600080fd5b9392505050565b634e487b7160e01b600052604160045260246000fd5b600181811c908216806200019457607f821691505b602082108103620001b557634e487b7160e01b600052602260045260246000fd5b50919050565b601f8211156200020957600081815260208120601f850160051c81016020861015620001e45750805b601f850160051c820191505b818110156200020557828155600101620001f0565b5050505b505050565b81516001600160401b038111156200022a576200022a62000169565b62000242816200023b84546200017f565b84620001bb565b602080601f8311600181146200027a5760008415620002615750858301515b600019600386901b1c1916600185901b17855562000205565b600085815260208120601f198616915b82811015620002ab578886015182559484019460019091019084016200028a565b5085821015620002ca5787850151600019600388901b60f8161c191681555b5050505050600190811b01905550565b61226d80620002ea6000396000f3fe608060405234801561001057600080fd5b50600436106101b95760003560e01c806370a08231116100f9578063bc2e62ca11610097578063e985e9c511610071578063e985e9c51461035b578063f2fde38b14610397578063f4ed5a6a14610239578063f76541761461023957600080fd5b8063bc2e62ca14610322578063c730cc6414610335578063c87b56dd1461034857600080fd5b806395d89b41116100d357806395d89b41146102f4578063a22cb465146102fc578063a7e1f6a214610239578063b88d4fde1461030f57600080fd5b806370a08231146102ba578063715018a6146102db5780638da5cb5b146102e357600080fd5b806321b113f31161016657806337727b8d1161014057806337727b8d1461023957806342842e0e1461028157806356e5848e146102945780636352211e146102a757600080fd5b806321b113f31461024e57806323b872dd1461026e5780632ae3594a1461023957600080fd5b8063095ea7b311610197578063095ea7b31461022657806311610c251461023957806311cc1f6f1461023b57600080fd5b806301ffc9a7146101be57806306fdde03146101e6578063081812fc146101fb575b600080fd5b6101d16101cc36600461187c565b6103aa565b60405190151581526020015b60405180910390f35b6101ee610406565b6040516101dd91906118e9565b61020e6102093660046118fc565b610498565b6040516001600160a01b0390911681526020016101dd565b61023961023436600461192a565b6104c1565b005b61023961024936600461199f565b6104d2565b61026161025c3660046118fc565b610535565b6040516101dd9190611a78565b61023961027c366004611b62565b6108a0565b61023961028f366004611b62565b610962565b6102396102a2366004611ba3565b610982565b61020e6102b53660046118fc565b610a37565b6102cd6102c8366004611be5565b610a42565b6040519081526020016101dd565b610239610aa3565b6000546001600160a01b031661020e565b6101ee610ab5565b61023961030a366004611c02565b610ac4565b61023961031d366004611c6f565b610acf565b610239610330366004611d4f565b610ae6565b610239610343366004611d78565b610b3b565b6101ee6103563660046118fc565b610b7b565b6101d1610369366004611dc4565b6001600160a01b03918216600090815260066020908152604080832093909416825291909152205460ff1690565b6102396103a5366004611be5565b610c8c565b60007fffffffff0000000000000000000000000000000000000000000000000000000082167f49064906000000000000000000000000000000000000000000000000000000001480610400575061040082610ce3565b92915050565b60606001805461041590611df2565b80601f016020809104026020016040519081016040528092919081815260200182805461044190611df2565b801561048e5780601f106104635761010080835404028352916020019161048e565b820191906000526020600020905b81548152906001019060200180831161047157829003601f168201915b5050505050905090565b60006104a382610dc6565b506000828152600560205260409020546001600160a01b0316610400565b6104cc828233610e18565b5050565b565b6000848152600960205260409020600381016104ef848683611e93565b506004810180547fffffffffffffffffffffffffffffffffffffffffffffffffffffffffffffff00166002179055816006820161052c8282611f60565b50505050505050565b61053d6117dd565b600960008381526020019081526020016000206040518060e00160405290816000820154815260200160018201805461057590611df2565b80601f01602080910402602001604051908101604052809291908181526020018280546105a190611df2565b80156105ee5780601f106105c3576101008083540402835291602001916105ee565b820191906000526020600020905b8154815290600101906020018083116105d157829003601f168201915b5050505050815260200160028201805461060790611df2565b80601f016020809104026020016040519081016040528092919081815260200182805461063390611df2565b80156106805780601f1061065557610100808354040283529160200191610680565b820191906000526020600020905b81548152906001019060200180831161066357829003601f168201915b5050505050815260200160038201805461069990611df2565b80601f01602080910402602001604051908101604052809291908181526020018280546106c590611df2565b80156107125780601f106106e757610100808354040283529160200191610712565b820191906000526020600020905b8154815290600101906020018083116106f557829003601f168201915b5050509183525050600482015460209091019060ff16600381111561073957610739611a17565b600381111561074a5761074a611a17565b815260200160058201805461075e90611df2565b80601f016020809104026020016040519081016040528092919081815260200182805461078a90611df2565b80156107d75780601f106107ac576101008083540402835291602001916107d7565b820191906000526020600020905b8154815290600101906020018083116107ba57829003601f168201915b505050505081526020016006820160405180604001604052908160008201805461080090611df2565b80601f016020809104026020016040519081016040528092919081815260200182805461082c90611df2565b80156108795780601f1061084e57610100808354040283529160200191610879565b820191906000526020600020905b81548152906001019060200180831161085c57829003601f168201915b5050509183525050600191909101546001600160a01b031660209091015290525092915050565b6001600160a01b0382166108e8576040517f64a0ae92000000000000000000000000000000000000000000000000000000008152600060048201526024015b60405180910390fd5b60006108f5838333610e25565b9050836001600160a01b0316816001600160a01b03161461095c576040517f64283d7b0000000000000000000000000000000000000000000000000000000081526001600160a01b03808616600483015260248201849052821660448201526064016108df565b50505050565b61097d83838360405180602001604052806000815250610acf565b505050565b61098a610f36565b6008546109bb6109a26000546001600160a01b031690565b600880549060006109b2836120ae565b91905055610f7c565b60008181526009602052604090208181556004810180547fffffffffffffffffffffffffffffffffffffffffffffffffffffffffffffff0016905560058101610a05848683611e93565b5060405182907f36e126f424c5617dbfdb44115481668647efff3ab180824aa3eaf56a6e677bb290600090a250505050565b600061040082610dc6565b60006001600160a01b038216610a87576040517f89c62b64000000000000000000000000000000000000000000000000000000008152600060048201526024016108df565b506001600160a01b031660009081526004602052604090205490565b610aab610f36565b6104d06000610f96565b60606002805461041590611df2565b6104cc338383610ffe565b610ada8484846108a0565b61095c848484846110d4565b600082815260096020526040902060040180548291907fffffffffffffffffffffffffffffffffffffffffffffffffffffffffffffff00166001836003811115610b3257610b32611a17565b02179055505050565b61097d8383838080601f01602080910402602001604051908101604052809392919081815260200183838082843760009201919091525061127992505050565b6060610b8682610dc6565b5060008281526007602052604081208054610ba090611df2565b80601f0160208091040260200160405190810160405280929190818152602001828054610bcc90611df2565b8015610c195780601f10610bee57610100808354040283529160200191610c19565b820191906000526020600020905b815481529060010190602001808311610bfc57829003601f168201915b505050505090506000610c3760408051602081019091526000815290565b90508051600003610c49575092915050565b815115610c7b578082604051602001610c639291906120ef565b60405160208183030381529060405292505050919050565b610c84846112c9565b949350505050565b610c94610f36565b6001600160a01b038116610cd7576040517f1e4fbdf7000000000000000000000000000000000000000000000000000000008152600060048201526024016108df565b610ce081610f96565b50565b60007fffffffff0000000000000000000000000000000000000000000000000000000082167f80ac58cd000000000000000000000000000000000000000000000000000000001480610d7657507fffffffff0000000000000000000000000000000000000000000000000000000082167f5b5e139f00000000000000000000000000000000000000000000000000000000145b8061040057507f01ffc9a7000000000000000000000000000000000000000000000000000000007fffffffff00000000000000000000000000000000000000000000000000000000831614610400565b6000818152600360205260408120546001600160a01b031680610400576040517f7e273289000000000000000000000000000000000000000000000000000000008152600481018490526024016108df565b61097d838383600161133e565b6000828152600360205260408120546001600160a01b0390811690831615610e5257610e52818486611494565b6001600160a01b03811615610e9057610e6f60008560008061133e565b6001600160a01b038116600090815260046020526040902080546000190190555b6001600160a01b03851615610ebf576001600160a01b0385166000908152600460205260409020805460010190555b60008481526003602052604080822080547fffffffffffffffffffffffff0000000000000000000000000000000000000000166001600160a01b0389811691821790925591518793918516917fddf252ad1be2c89b69c2b068fc378daa952ba7f163c4a11628f55a4df523b3ef91a4949350505050565b6000546001600160a01b031633146104d0576040517f118cdaa70000000000000000000000000000000000000000000000000000000081523360048201526024016108df565b6104cc82826040518060200160405280600081525061152a565b600080546001600160a01b038381167fffffffffffffffffffffffff0000000000000000000000000000000000000000831681178455604051919092169283917f8be0079c531659141344cd1fd0a4f28419497f9722a3daafe3b4186f6b6457e09190a35050565b6001600160a01b038216611049576040517f5b08ba180000000000000000000000000000000000000000000000000000000081526001600160a01b03831660048201526024016108df565b6001600160a01b0383811660008181526006602090815260408083209487168084529482529182902080547fffffffffffffffffffffffffffffffffffffffffffffffffffffffffffffff001686151590811790915591519182527f17307eab39ab6107e8899845ad3d59bd9653f200f220920489ca2b5937696c31910160405180910390a3505050565b6001600160a01b0383163b1561095c576040517f150b7a020000000000000000000000000000000000000000000000000000000081526001600160a01b0384169063150b7a029061112f90339088908790879060040161211e565b6020604051808303816000875af192505050801561116a575060408051601f3d908101601f191682019092526111679181019061215a565b60015b6111ec573d808015611198576040519150601f19603f3d011682016040523d82523d6000602084013e61119d565b606091505b5080516000036111e4576040517f64a0ae920000000000000000000000000000000000000000000000000000000081526001600160a01b03851660048201526024016108df565b805181602001fd5b7fffffffff0000000000000000000000000000000000000000000000000000000081167f150b7a020000000000000000000000000000000000000000000000000000000014611272576040517f64a0ae920000000000000000000000000000000000000000000000000000000081526001600160a01b03851660048201526024016108df565b5050505050565b60008281526007602052604090206112918282612177565b506040518281527ff8e1a15aba9398e019f0b49df1a4fde98ee17ae345cb5f6b5e2c27f5033e8ce79060200160405180910390a15050565b60606112d482610dc6565b5060006112ec60408051602081019091526000815290565b9050600081511161130c5760405180602001604052806000815250611337565b8061131684611541565b6040516020016113279291906120ef565b6040516020818303038152906040525b9392505050565b808061135257506001600160a01b03821615155b1561144c57600061136284610dc6565b90506001600160a01b0383161580159061138e5750826001600160a01b0316816001600160a01b031614155b80156113c057506001600160a01b0380821660009081526006602090815260408083209387168352929052205460ff16155b15611402576040517fa9fbf51f0000000000000000000000000000000000000000000000000000000081526001600160a01b03841660048201526024016108df565b811561144a5783856001600160a01b0316826001600160a01b03167f8c5be1e5ebec7d5bd14f71427d1e84f3dd0314c0f7b2291e5b200ac8c7c3b92560405160405180910390a45b505b5050600090815260056020526040902080547fffffffffffffffffffffffff0000000000000000000000000000000000000000166001600160a01b0392909216919091179055565b61149f8383836115e1565b61097d576001600160a01b0383166114e6576040517f7e273289000000000000000000000000000000000000000000000000000000008152600481018290526024016108df565b6040517f177e802f0000000000000000000000000000000000000000000000000000000081526001600160a01b0383166004820152602481018290526044016108df565b6115348383611664565b61097d60008484846110d4565b6060600061154e836116fb565b600101905060008167ffffffffffffffff81111561156e5761156e611c40565b6040519080825280601f01601f191660200182016040528015611598576020820181803683370190505b5090508181016020015b600019017f3031323334353637383961626364656600000000000000000000000000000000600a86061a8153600a85049450846115a257509392505050565b60006001600160a01b03831615801590610c845750826001600160a01b0316846001600160a01b0316148061163b57506001600160a01b0380851660009081526006602090815260408083209387168352929052205460ff165b80610c845750506000908152600560205260409020546001600160a01b03908116911614919050565b6001600160a01b0382166116a7576040517f64a0ae92000000000000000000000000000000000000000000000000000000008152600060048201526024016108df565b60006116b583836000610e25565b90506001600160a01b0381161561097d576040517f73c6ac6e000000000000000000000000000000000000000000000000000000008152600060048201526024016108df565b6000807a184f03e93ff9f4daa797ed6e38ed64bf6a1f0100000000000000008310611744577a184f03e93ff9f4daa797ed6e38ed64bf6a1f010000000000000000830492506040015b6d04ee2d6d415b85acef81000000008310611770576d04ee2d6d415b85acef8100000000830492506020015b662386f26fc10000831061178e57662386f26fc10000830492506010015b6305f5e10083106117a6576305f5e100830492506008015b61271083106117ba57612710830492506004015b606483106117cc576064830492506002015b600a83106104005760010192915050565b6040518060e00160405280600081526020016060815260200160608152602001606081526020016000600381111561181757611817611a17565b81526020016060815260200161184960405180604001604052806060815260200160006001600160a01b031681525090565b905290565b7fffffffff0000000000000000000000000000000000000000000000000000000081168114610ce057600080fd5b60006020828403121561188e57600080fd5b81356113378161184e565b60005b838110156118b457818101518382015260200161189c565b50506000910152565b600081518084526118d5816020860160208601611899565b601f01601f19169290920160200192915050565b60208152600061133760208301846118bd565b60006020828403121561190e57600080fd5b5035919050565b6001600160a01b0381168114610ce057600080fd5b6000806040838503121561193d57600080fd5b823561194881611915565b946020939093013593505050565b60008083601f84011261196857600080fd5b50813567ffffffffffffffff81111561198057600080fd5b60208301915083602082850101111561199857600080fd5b9250929050565b600080600080606085870312156119b557600080fd5b84359350602085013567ffffffffffffffff808211156119d457600080fd5b6119e088838901611956565b909550935060408701359150808211156119f957600080fd5b50850160408188031215611a0c57600080fd5b939692955090935050565b7f4e487b7100000000000000000000000000000000000000000000000000000000600052602160045260246000fd5b6000815160408452611a5b60408501826118bd565b6020938401516001600160a01b0316949093019390935250919050565b60208152815160208201526000602083015160e06040840152611a9f6101008401826118bd565b90506040840151601f1980858403016060860152611abd83836118bd565b92506060860151915080858403016080860152611ada83836118bd565b92506080860151915060048210611b1a577f4e487b7100000000000000000000000000000000000000000000000000000000600052602160045260246000fd5b8160a086015260a08601519150808584030160c0860152611b3b83836118bd565b925060c08601519150808584030160e086015250611b598282611a46565b95945050505050565b600080600060608486031215611b7757600080fd5b8335611b8281611915565b92506020840135611b9281611915565b929592945050506040919091013590565b60008060208385031215611bb657600080fd5b823567ffffffffffffffff811115611bcd57600080fd5b611bd985828601611956565b90969095509350505050565b600060208284031215611bf757600080fd5b813561133781611915565b60008060408385031215611c1557600080fd5b8235611c2081611915565b915060208301358015158114611c3557600080fd5b809150509250929050565b7f4e487b7100000000000000000000000000000000000000000000000000000000600052604160045260246000fd5b60008060008060808587031215611c8557600080fd5b8435611c9081611915565b93506020850135611ca081611915565b925060408501359150606085013567ffffffffffffffff80821115611cc457600080fd5b818701915087601f830112611cd857600080fd5b813581811115611cea57611cea611c40565b604051601f8201601f19908116603f01168101908382118183101715611d1257611d12611c40565b816040528281528a6020848701011115611d2b57600080fd5b82602086016020830137600060208483010152809550505050505092959194509250565b60008060408385031215611d6257600080fd5b82359150602083013560048110611c3557600080fd5b600080600060408486031215611d8d57600080fd5b83359250602084013567ffffffffffffffff811115611dab57600080fd5b611db786828701611956565b9497909650939450505050565b60008060408385031215611dd757600080fd5b8235611de281611915565b91506020830135611c3581611915565b600181811c90821680611e0657607f821691505b602082108103611e3f577f4e487b7100000000000000000000000000000000000000000000000000000000600052602260045260246000fd5b50919050565b601f82111561097d57600081815260208120601f850160051c81016020861015611e6c5750805b601f850160051c820191505b81811015611e8b57828155600101611e78565b505050505050565b67ffffffffffffffff831115611eab57611eab611c40565b611ebf83611eb98354611df2565b83611e45565b6000601f841160018114611ef35760008515611edb5750838201355b600019600387901b1c1916600186901b178355611272565b600083815260209020601f19861690835b82811015611f245786850135825560209485019460019092019101611f04565b5086821015611f415760001960f88860031b161c19848701351681555b505060018560011b0183555050505050565b6000813561040081611915565b81357fffffffffffffffffffffffffffffffffffffffffffffffffffffffffffffffe1833603018112611f9257600080fd5b8201803567ffffffffffffffff811115611fab57600080fd5b60208136038184011315611fbe57600080fd5b611fd282611fcc8654611df2565b86611e45565b6000601f8311600181146120085760008415611ff057508482018301355b600019600386901b1c1916600185901b178655612065565b600086815260209020601f19851690835b8281101561203a578785018601358255938501936001909101908501612019565b50858210156120595760001960f88760031b161c198585890101351681555b505060018460011b0186555b5050611272612075828701611f53565b600186016001600160a01b0382167fffffffffffffffffffffffff00000000000000000000000000000000000000008254161781555050565b600060001982036120e8577f4e487b7100000000000000000000000000000000000000000000000000000000600052601160045260246000fd5b5060010190565b60008351612101818460208801611899565b835190830190612115818360208801611899565b01949350505050565b60006001600160a01b0380871683528086166020840152508360408301526080606083015261215060808301846118bd565b9695505050505050565b60006020828403121561216c57600080fd5b81516113378161184e565b815167ffffffffffffffff81111561219157612191611c40565b6121a58161219f8454611df2565b84611e45565b602080601f8311600181146121da57600084156121c25750858301515b600019600386901b1c1916600185901b178555611e8b565b600085815260208120601f198616915b82811015612209578886015182559484019460019091019084016121ea565b50858210156122275787850151600019600388901b60f8161c191681555b5050505050600190811b0190555056fea2646970667358221220ec1628c3688635655ff59e9fc2f94ca1fa3364f6ff1a20bc04f5f09cd6b8000564736f6c63430008140033",
  "linkReferences": {},
  "deployedLinkReferences": {}
}